:100000000C9434000C9451000C9451000C94510049
:100010000C9451000C9451000C9451000C9451001C
:100020000C9451000C9451000C9451000C9451000C
:100030000C9451000C9451000C9451000C945100FC
:100040000C9451000C9451000C94B9000C94510084
:100050000C9451000C9451000C9451000C945100DC
:100060000C9451000C94510011241FBECFEFD8E026
:10007000DEBFCDBF11E0A0E0B1E0ECEBF2E002C0EA
:1000800005900D92A830B107D9F721E0A8E0B1E0C2
:1000900001C01D92AF31B207E1F70E94E0000C945D
:1000A0005C010C940000CF93DF939B01AC01E2EC68
:1000B000F0E080818F7B808380818F778083808157
:1000C0008F7E808380818F7D80838081877F808306
:1000D000808182608083808184608083C1ECD0E0F5
:1000E00088818B7F8883888188608883888180610C
:1000F0008883E0ECF0E080818260808360E874E8CF
:100100008EE190E00E941B01215031093093C5001F
:100110002093C400888180688883DF91CF910895FF
:100120008093C6008091C00085FFFCCF0895809128
:10013000C00087FFFCCF2D9A8091C6000895EF92F2
:10014000FF920F931F93CF93DF938C017B01EC0100
:10015000CE01801B910B8E159F0524F489910E947E
:100160009000F6CFDF91CF911F910F91FF90EF900C
:1001700008951F920F920FB60F9211242F938F9311
:100180009F938091C60080930A012FEF81EE94E047
:10019000215080409040E1F700C0000095B180E21E
:1001A000892785B99F918F912F910F900FBE0F9046
:1001B0001F901895259A2D98249A2C98219A089585
:1001C000CF93DF93CDB7DEB728970FB6F894DEBF95
:1001D0000FBECDBF60E875E280E090E00E94530062
:1001E0000E94DA0078942FEF81EE94E02150804055
:1001F0009040E1F700C0000010E1299A88E0E0E0BB
:10020000F1E0DE01119601900D928A95E1F768E028
:1002100070E0CE0101960E949F00299885B1812748
:1002200085B92FEF83ED90E3215080409040E1F7B6
:1002300000C00000E2CF052E97FB1EF400940E9440
:10024000320157FD07D00E943A0107FC03D04EF45B
:100250000C94320150954095309521953F4F4F4F6A
:100260005F4F089590958095709561957F4F8F4F62
:100270009F4F0895A1E21A2EAA1BBB1BFD010DC0C2
:10028000AA1FBB1FEE1FFF1FA217B307E407F50746
:1002900020F0A21BB30BE40BF50B661F771F881F22
:1002A000991F1A9469F760957095809590959B01B8
:0C02B000AC01BD01CF010895F894FFCF10
:0802BC00020300000001843977
:00000001FF
