:100000000C9434000C9451000C9451000C94510049
:100010000C9451000C9451000C9451000C9451001C
:100020000C9451000C9451000C9451000C9451000C
:100030000C9451000C9451000C9451000C945100FC
:100040000C9451000C9451000C94A1000C9451009C
:100050000C9451000C9451000C9451000C945100DC
:100060000C9451000C94510011241FBECFEFD8E026
:10007000DEBFCDBF11E0A0E0B1E0EEEBF1E002C0E9
:1000800005900D92A630B107D9F721E0A6E0B1E0C6
:1000900001C01D92A730B207E1F70E94CA000C947C
:1000A000DD000C940000E2ECF0E080818F7B808327
:1000B00080818F77808380818F7E808380818F7D18
:1000C00080838081877F808380818260808380813C
:1000D00084608083E1ECF0E080818B7F808380818D
:1000E00088608083808180618083A0ECB0E08C9107
:1000F00082608C9380E190E09093C5008093C4006F
:1001000080818068808308958093C6008091C000BC
:1001100085FFFCCF08958091C00087FFFCCF8091C0
:10012000C6000895CF93DF93EC018991882319F0DD
:100130000E948400FACFDF91CF910895259A2D98DF
:1001400008951F920F920FB60F9211242F933F9391
:100150004F935F936F937F938F939F93AF93BF93CF
:10016000EF93FF93F8948091C600809306010E945C
:100170008400FF91EF91BF91AF919F918F917F91FB
:100180006F915F914F913F912F910F900FBE0F9004
:100190001F9018950E94530078940E949E002FEFA4
:1001A00087EA91E6215080409040E1F700C00000CE
:0E01B00080E091E00E949200FFCFF894FFCF14
:0601BE0041540D0A00008F
:00000001FF
