:020000040800F2
:100000000000022039110008710300087303000882
:10001000750300087703000879030008000000005A
:100020000000000000000000000000007B0300084A
:100030007D030008000000007F0300088103000822
:100040008911000889110008891100088911000828
:100050008911000889110008891100088911000818
:100060008911000889110008891100088911000808
:1000700089110008891100088911000889110008F8
:10008000891100088911000889110008000000008A
:1000900000000000000000000000000089110008BE
:1000A00089110008891100088911000889110008C8
:1000B00089110008891100088911000889110008B8
:1000C00089110008891100088911000889110008A8
:1000D000891100088911000889110008000000003A
:1000E000891100088911000889110008000000002A
:1000F000000000000000000000000000891100085E
:100100000000000089110008891100088911000809
:1001100000000000000000000000000000000000DF
:100120008911000889110008891100088911000847
:10013000891100080000000000000000000000001D
:10014000000000000000000000000000891100080D
:100150008911000889110008891100088911000817
:10016000891100088911000800000000000000004B
:10017000000000000000000000000000000000007F
:1001800000000000891100080000000000000000CD
:08019000891100088911000823
:1001980053B94AB9002908BF00281CBF4FF0FF31E6
:1001A8004FF0FF3000F00CB8ADF1080C6DE904CE4B
:1001B80001F014F8DDF804E0DDE9022304B070472B
:1001C800704700BF10B5054C237833B9044B13B101
:1001D8000448AFF300800123237010BD0C000020F9
:1001E800000000008414000808B5034B1BB1034944
:1001F8000348AFF3008008BD000000001000002095
:100208008414000830B587B0002401940294039444
:100218000494059400940E4B1A6B42F001021A6381
:100228001B6B03F001030093009B0A4D224620211B
:10023800284600F003FD2023019301230293039431
:10024800049401A9284600F015FC07B030BD00BF92
:10025800003802400000024072B6FEE708B50A48BE
:100268000A4B03604FF4E133436000238360C360AB
:1002780003610C2242618361C36100F0C2FE00B9D0
:1002880008BDFFF7E9FF00BF280000200044004038
:1002980000B595B03022002108A800F072FF0023B5
:1002A800039304930593069307930193184A116CDB
:1002B80041F080511164126C02F080520192019A4F
:1002C8000293144A116841F440411160126802F423
:1002D80040420292029A0222089201220B921022B4
:1002E8000C920E9308A800F09FF868B90F230393A7
:1002F8000021049105910691079103A800F0E4FA02
:1003080020B915B05DF804FBFFF7A6FFFFF7A4FFBF
:10031800003802400070004000B587B000F02EFDA4
:10032800FFF7B6FFFFF76EFFFFF798FF0DF1040C1C
:100338000A4C0FCCACE80F002368ACF800300A2355
:10034800122201A9064800F08CFE2021054800F081
:100358007BFC4FF47A7000F03DFDE7E79C14000841
:100368002800002000000240FEE7FEE7FEE7FEE767
:10037800FEE770477047704708B500F019FD08BDE3
:1003880082B0002100910B4B5A6C42F480425A64AF
:100398005A6C02F480420092009A01911A6C42F061
:1003A80080521A641B6C03F080530193019B02B0C6
:1003B800704700BF0038024000B589B0002303939E
:1003C80004930593069307930268154B9A4202D04B
:1003D80009B05DF804FB0021019103F5FA331A6CAA
:1003E80042F400321A641A6C02F400320192019A43
:1003F80002911A6B42F001021A631B6B03F00103AE
:100408000293029B0C230393022304930323069372
:100418000723079303A9034800F02CFBD8E700BF84
:100428000044004000000240002800F0E08170B560
:1004380082B00446036813F0010F3BD09F4B9B68C2
:1004480003F00C03042B2CD09C4B9B6803F00C038B
:10045800082B21D06368B3F5803F4FD0B3F5A02FA8
:1004680052D0964B1A6822F480321A601A6822F425
:1004780080221A606368002B50D000F0A5FC054666
:100488008E4B1B6813F4003F14D100F09DFC401BF9
:100498006428F5D90320B1E1884B5B6813F4800F19
:1004A800D8D0864B1B6813F4003F03D06368002B39
:1004B80000F09F81236813F0020F54D07F4B9B6894
:1004C80013F00C0F3ED07D4B9B6803F00C03082BF8
:1004D80033D0E368002B68D0794B01221A6000F012
:1004E80073FC0546754B1B6813F0020F54D100F0DE
:1004F8006BFC401B0228F5D903207FE16F4A136883
:1005080043F480331360B5E76C4B1A6842F48022D9
:100518001A601A6842F480321A60ABE700F054FCA3
:100528000546664B1B6813F4003FC3D000F04CFC33
:10053800401B6428F5D9032060E1604B5B6813F425
:10054800800FC6D15D4B1B6813F0020F03D0E36820
:10055800012B40F05081594A136823F0F8032169B0
:1005680043EAC1031360236813F0080F42D063699C
:100578006BB3534B0122C3F8802E00F025FC0546CF
:100588004E4B5B6F13F0020F34D100F01DFC401B83
:100598000228F5D9032031E1484A136823F0F8030B
:1005A800216943EAC1031360DDE7454B00221A6065
:1005B80000F00AFC0546414B1B6813F0020FD2D02D
:1005C80000F002FC401B0228F5D9032016E13C4B41
:1005D8000022C3F8802E00F0F7FB0546374B5B6F0F
:1005E80013F0020F06D000F0EFFB401B0228F5D9EC
:1005F800032003E1236813F0040F77D02F4B1B6C03
:1006080013F0805F33D1002301932C4B1A6C42F016
:1006180080521A641B6C03F080530193019B0125DF
:10062800284B1B6813F4807F23D0A368012B34D098
:10063800052B38D0214B1A6F22F001021A671A6F66
:1006480022F004021A67A368002B3DD000F0BCFB1F
:1006580006461A4B1B6F13F0020F46D100F0B4FB8D
:10066800801B41F288339842F3D90320C6E0002565
:10067800D6E7144A136843F48073136000F0A4FBB0
:100688000646104B1B6813F4807FCED100F09CFB0C
:10069800801B0228F5D90320B0E0084A136F43F005
:1006A80001031367CFE7054B1A6F42F004021A677C
:1006B8001A6F42F001021A67C5E700BF003802400E
:1006C800000047420070004000F07EFB0646524B97
:1006D8001B6F13F0020F08D000F076FB801B41F26D
:1006E80088339842F3D9032088E0EDB9A369002B39
:1006F80000F08380484A926802F00C02082A51D020
:10070800022B17D0454B00221A6600F05DFB044609
:10071800414B1B6813F0007F42D000F055FB001BD3
:100728000228F5D9032069E03B4A136C23F0805373
:100738001364DBE7394B00221A6600F045FB0546D7
:10074800354B1B6813F0007F06D000F03DFB401BC3
:100758000228F5D9032051E0E369226A1343626A4B
:1007680043EA8213A26A5208013A43EA0243E26A60
:1007780043EA0263284A5360284B01221A6600F0B4
:1007880023FB0446244B1B6813F0007F06D100F0BE
:100798001BFB001B0228F5D903202FE000202DE0C9
:1007A80000202BE0012B2BD01B4B5B6803F480014E
:1007B800E269914226D103F03F02216A8A4223D19D
:1007C800616A47F6C0721A40B2EB811F1ED103F46A
:1007D8004031A26A5208013AB1EB024F18D103F036
:1007E8007063E26AB3EB026F14D1002006E00120C7
:1007F8007047012002E0012000E0002002B070BD37
:100808000120FBE70120F9E70120F7E70120F5E7E0
:100818000120F3E70120F1E70038024000004742D9
:1008280008B5264B9B6803F00C03042B41D0082B1A
:1008380041D1224B5A6802F03F025B6813F4800FE3
:1008480012D01E4B5968C1F388111D480023A1FB23
:100858000001FFF79DFC194B5B68C3F301430133AB
:100868005B00B0FBF3F008BD144B5868C0F3881068
:100878004FEA401CBCEB000C6EEB0E0E4FEA8E13D9
:1008880043EA9C634FEA8C11B1EB0C0163EB0E0356
:10089800DB0043EA5173C90011EB000C43F100037C
:1008A800990200234FEA8C2041EA9C51FFF770FC23
:1008B800D1E70348D7E70348D5E700BF003802402F
:1008C80040787D010024F400002800F09B8070B57A
:1008D8000D4604464F4B1B6803F007038B4208D2B2
:1008E800CBB24C4A1370136803F007038B4240F0F5
:1008F8008B80236813F0020F17D013F0040F04D075
:10090800454A936843F4E0539360236813F0080F53
:1009180004D0414A936843F4604393603E4A936825
:1009280023F0F003A1680B439360236813F0010FD1
:1009380032D06368012B21D09A1E012A25D9364A64
:10094800126812F0020F61D033498A6822F003025C
:1009580013438B6000F038FA06462F4B9B6803F070
:100968000C036268B3EB820F16D000F02DFA801BDF
:1009780041F288339842F0D9032042E0264A1268AF
:1009880012F4003FE0D101203BE0234A126812F044
:10099800007FD9D1012034E01E4B1B6803F0070308
:1009A800AB4207D9EAB21B4B1A701B6803F0070366
:1009B800AB422DD1236813F0040F06D0164A936872
:1009C80023F4E053E1680B439360236813F0080FA6
:1009D80007D0114A936823F46043216943EAC103AD
:1009E8009360FFF71DFF0C4B9B68C3F303130B4A7F
:1009F800D35CD8400A4B18600A4B186800F098F985
:100A0800002070BD012070470120FAE70120F8E7B7
:100A18000120F6E7003C024000380240B814000804
:100A28000800002004000020014B1868704700BF30
:100A38000800002008B5FFF7F7FF044B9B68C3F3D5
:100A48008223034AD35CD84008BD00BF0038024067
:100A5800B014000808B5FFF7E7FF044B9B68C3F321
:100A68004233034AD35CD84008BD00BF0038024077
:100A7800B014000800230F2B00F2D78070B582B0A5
:100A880065E085684FEA430E032404FA0EF425EA6C
:100A98000405CC6804FA0EF42C438460446824EA04
:100AA80002044A68C2F300129A40224342605CE0A2
:100AB800DC08083450F8242003F00705AD004FF097
:100AC8000F0E0EFA05FE22EA0E0E0A69AA4042EA45
:100AD8000E0240F824205CE0042200E0002202FA22
:100AE8000EF22A430234514D45F82420504A9468A6
:100AF8006FEA0C0224EA0C054E6816F4801F01D038
:100B08004CEA04054A4CA560E46802EA04054E680C
:100B180016F4001F01D04CEA0405454CE5606468F2
:100B280002EA04054E6816F4003F01D04CEA0405B9
:100B38003F4C6560246822404D6815F4803F01D021
:100B48004CEA04023A4C226001330F2B6BD8012285
:100B58009A400C6804EA020C32EA0404F4D14C68A6
:100B680004F00304013C012C8BD94A6802F003020B
:100B7800032A09D0C4685D000322AA4024EA0204BB
:100B88008A68AA402243C2604A6802F00302022A25
:100B98008ED004684FEA430E032202FA0EF224EACA
:100BA80002044A6802F0030202FA0EF222430260CB
:100BB8004A6812F4403FC7D0002201921D4A546C83
:100BC80044F480445464526C02F480420192019AC5
:100BD8009C08A51C154A52F8255003F0030E4FEA4D
:100BE8008E0E0F2202FA0EF225EA0205124A9042F0
:100BF8003FF474AF02F5806290420ED002F5806235
:100C080090420CD002F5806290420AD002F58062D0
:100C180090423FF461AF072261E701225FE70222B9
:100C28005DE703225BE702B070BD70470038014002
:100C3800003C014000380240000002400AB18161D6
:100C48007047090481617047436901EA030221EA98
:100C5800030141EA0241816170470000002808DB76
:100C68000901C9B200F1604000F5614080F8001345
:100C7800704700F00F000901C9B2014B19547047C1
:100C880014ED00E000B500F00700C0F1070CBCF15E
:100C9800040F28BF4FF0040C031D062B0FD9C31EE9
:100CA8004FF0FF3E0EFA0CF021EA000199400EFACF
:100CB80003FE22EA0E0241EA02005DF804FB00236B
:100CC800EEE70000074AD36823F4E0631B041B0C1B
:100CD800000200F4E060034343F0BF6343F40033D1
:100CE800D360704700ED00E010B50446054BD868A6
:100CF800C0F30220FFF7C6FF01462046FFF7AEFF0C
:100D080010BD00BF00ED00E00138B0F1807F0BD2CC
:100D18004FF0E0235861054AF02182F823100020A3
:100D2800986107221A6170470120704700ED00E0C2
:100D380010B504460E4B1A784FF47A73B3FBF2F3EE
:100D48000C4A1068B0FBF3F0FFF7DEFF68B90F2C10
:100D580001D901200AE0002221464FF0FF30FFF7B9
:100D6800C3FF054B1C60002000E0012010BD00BF40
:100D780000000020080000200400002008B50B4BEC
:100D88001A6842F400721A601A6842F480621A60A3
:100D98001A6842F480721A600320FFF793FF0F204D
:100DA800FFF7C6FFFFF7ECFA002008BD003C024041
:100DB800034A1168034B1B780B441360704700BF4C
:100DC8007000002000000020014B1868704700BF29
:100DD8007000002038B50446FFF7F6FF0546B4F169
:100DE800FF3F02D0044B1B781C44FFF7EDFF401B6C
:100DF800A042FAD338BD00BF00000020034AD2F851
:100E0800883043F47003C2F88830704700ED00E082
:100E1800026802F10C0353E8003F23F490730C328C
:100E280042E800310029F3D1026802F1140353E8C3
:100E3800003F23F00103143242E800310029F3D1C6
:100E4800036B012B05D0202380F842300023036375
:100E58007047026802F10C0353E8003F23F01003C7
:100E68000C3242E800310029F3D1ECE710B5044612
:100E78000268136923F44053C1680B431361836804
:100E880002691A4343691A43C3691A430168CB6864
:100E980023F4164323F00C031343CB600268536911
:100EA80023F4407381690B4353610368314A9342C9
:100EB80006D002F58062934202D0FFF7BBFD01E045
:100EC800FFF7C8FDE369B3F5004F29D000210318E7
:100ED80049411B1841F10001C90041EA5371DB0087
:100EE800181863684FEA83024FEA937341F10001CF
:100EF800FFF74EF9204AA2FB00314909642303FB9E
:100F080011031B013233A2FB03235B0903F0F00238
:100F180002EB011203F00F03216813448B6010BD2C
:100F28000023021843EB0301121841F10001C90024
:100F380041EA5271D200101841F10001626892181A
:100F48005B41FFF725F90C4AA2FB003149096423EC
:100F580003FB1103DB003233A2FB03235B095A00B6
:100F680002F4F87202EB011203F00703216813443C
:100F78008B60D4E7001001401F85EB512DE9F04349
:100F880083B005460E4617469946DDF828802B683B
:100F98001C6836EA04040CBF01240024BC4228D192
:100FA800B8F1FF3FF3D0FFF70FFFA0EB0900404572
:100FB80023D8B8F1000F22D02B68DA6812F0040F9A
:100FC800E5D0802EE3D0402EE1D01A6812F0080F49
:100FD800DDD0002401941A6801925B680193019B9B
:100FE8002846FFF715FF08236B6485F84040012069
:100FF80000E0002003B0BDE8F0830320FAE70320F7
:10100800F8E760B310B5044690F8413013B32423D1
:1010180084F841302268D36823F40053D360204613
:10102800FFF724FF2268136923F4904313612268B1
:10103800536923F02A0353612268D36843F40053A9
:10104800D36000206064202384F8413084F8423063
:10105800606310BD80F84030FFF7AEF9D7E7012094
:1010680070472DE9F04182B01E4690F84130DBB25E
:10107800202B56D104460D469046002955D00AB972
:1010880001204FE000234364212380F84130FFF71B
:101098009BFE0746A4F82480A4F82680A368B3F52D
:1010A800805F02D04FF0000814E023692BB34FF0A3
:1010B80000080FE0202384F84130032032E038F89C
:1010C800023B2268C3F308035360E28C92B2013AF0
:1010D80092B2E284E38C9BB293B100963B46002225
:1010E80080212046FFF74AFF0028E3D1002DE6D0F3
:1010F80015F8012B23685A60E7E7A8460025E9E7B9
:1011080000963B46002240212046FFF737FF18B9DA
:10111800202384F8413005E0202384F8413003205F
:1011280000E0022002B0BDE8F0810120FAE70000EB
:10113800DFF834D0FFF762FE0C480D490D4A002352
:1011480002E0D458C4500433C4188C42F9D30A4A74
:101158000A4C002301E013600432A242FBD300F0E2
:1011680019F8FFF7D9F870470000022000000020A6
:101178000C000020D81400080C0000207400002087
:10118800FEE702440346934200D1704703F8011B6F
:10119800F9E7000070B50D4D0D4C641BA410002636
:1011A800A64209D10B4D0C4C00F068F9641BA41041
:1011B8000026A64205D170BD55F8043B9847013674
:1011C800EEE755F8043B98470136F2E7D0140008DB
:1011D800D0140008D0140008D41400082DE9F047F2
:1011E80086468C460846089E154674461946002BC6
:1011F80040F0C2808542B2FA82F245D94AB1C2F1C2
:10120800200300FA02FC2EFA03F3954043EA0C0C83
:1012180094404FEA154EA8B2BCFBFEF8230C0EFB17
:1012280018CC08FB00F943EA0C43994528D9EB1878
:1012380008F1FF3704D2994502D9A8F102072B44D7
:10124800A3EB0903A4B2B3FBFEFC0EFB1C330CFB9F
:1012580000F044EA0344A04214D92C190CF1FF33DE
:1012680004D2A04202D9ACF102032C44241A43EA66
:1012780007401EB1D440002334607360BDE8F08796
:101288004746DDE76346F1E792BB431B01214FEA7E
:10129800154EAFB2B3FBFEFC200C0EFB1C330CFB4F
:1012A80007F840EA0343984562D9EB180CF1FF3080
:1012B80004D2984502D9ACF102002B44A3EB0803F1
:1012C800A4B2B3FBFEFC0EFB1C330CFB07F744EA8D
:1012D8000344A7424ED92C190CF1FF3304D2A7427C
:1012E80002D9ACF102032C44E41B43EA0040C0E7F6
:1012F800C2F1200320FA03F1954090402EFA03F33F
:1013080003434FEA154EAFB2B1FBFEFC0EFB1C10B7
:10131800190C0CFB07F841EA0041884504FA02F46D
:1013280022D969180CF1FF3004D2884502D9ACF1F2
:1013380002002944A1EB08019BB2B1FBFEFC0EFBA5
:101348001C110CFB07F743EA01439F420ED9EB1827
:101358000CF1FF3104D29F4202D9ACF102012B44B7
:10136800DB1B41EA004192E76046E3E76146F7E7A5
:101378006046A3E76346B7E7834206D916B900215A
:1013880008467BE7C6E900E0F9E7B3FA83F78FB9C7
:10139800834201D3724508D8BEEB020460EB030315
:1013A80001209C461EB9002168E73846FAE7C6E9DD
:1013B800004CF8E7C7F1200CBB4022FA0CF41C43A0
:1013C8002EFA0CF120FA0CF3B84001434FEA144905
:1013D8000EFA07F5B3FBF9F81FFA84FE09FB18307B
:1013E8000B0C08FB0EFA43EA00439A4502FA07F28F
:1013F80040D9E31808F1FF3004D29A4502D9A8F180
:1014080002002344A3EB0A0389B2B3FBF9F809FBF2
:10141800183308FB0EFE41EA03418E452CD96118AA
:1014280008F1FF3304D28E4502D9A8F10203214402
:1014380043EA0040A0FB0298A1EB0E014145CE46CD
:10144800434602D306D14D4504D2B9EB020E68EBF0
:1014580004030138002EA6D0B5EB0E0261EB0301A0
:1014680001FA0CFC22FA07F34CEA0303F940C6E937
:10147800003198E74046C5E74346D9E7F8B500BFCD
:10148800F8BC08BC9E467047F8B500BFF8BC08BC5D
:041498009E467047B5
:10149C0048656C6C6F20576F726C64202121210D94
:1014AC000A0000000000000001020304000000001C
:0C14BC00000000000102030406070809FC
:0814C8001CFDFF7F0100000084
:0414D000F10100081E
:0414D400CD0100083E
:0C14D80001000000100000000024F400DF
:0400000508001139A5
:00000001FF
