:020000040800F2
:1000000000000220491800080D0400080F04000831
:100010001104000813040008150400080000000083
:1000200000000000000000000000000017040008AD
:1000300019040008000000001B0400081D0400084B
:1000400099180008991800089918000899180008CC
:1000500099180008991800089918000899180008BC
:1000600099180008991800089918000899180008AC
:10007000991800089918000899180008991800089C
:100080009918000899180008991800080000000045
:1000900000000000000000000000000099180008A7
:1000A000991800089918000899180008991800086C
:1000B000991800089918000899180008991800085C
:1000C000991800089918000899180008991800084C
:1000D000991800082504000899180008000000007D
:1000E00099180008991800089918000800000000E5
:1000F0000000000000000000000000009918000847
:1001000000000000991800089918000899180008C4
:1001100000000000000000000000000000000000DF
:1001200099180008991800089918000899180008EB
:100130009918000800000000000000000000000006
:1001400000000000000000000000000099180008F6
:1001500099180008991800089918000899180008BB
:10016000991800089918000800000000000000001D
:10017000000000000000000000000000000000007F
:1001800000000000991800080000000000000000B6
:080190009918000899180008F5
:1001980053B94AB9002908BF00281CBF4FF0FF31E6
:1001A8004FF0FF3000F00CB8ADF1080C6DE904CE4B
:1001B80001F0B2FBDDF804E0DDE9022304B070478A
:1001C800704700BF10B5054C237833B9044B13B101
:1001D8000448AFF300800123237010BD0C000020F9
:1001E80000000000C01B000808B5034B1BB1034901
:1001F8000348AFF3008008BD000000001000002095
:10020800C01B000830B587B0002401940294039401
:100218000494059400940E4B1A6B42F001021A6381
:100228001B6B03F001030093009B0A4D224620211B
:10023800284600F089FD20230193012302930394AB
:10024800049401A9284600F09BFC07B030BD00BF0C
:10025800003802400000024000B583B001900A2235
:10026800034901A801F0D9FA03B05DF804FB00BF07
:100278002800002072B6FEE708B50A480A4B03605A
:100288004FF4E133436000238360C36003610C22B1
:1002980042618361C36100F0D8FF00B908BDFFF770
:1002A800E9FF00BF780000200044004008B50A4874
:1002B8000A4B03604FF4E133436000238360C3605B
:1002C80003610C2242618361C36100F0BEFF00B983
:1002D80008BDFFF7CFFF00BFC0000020001001409D
:1002E80000B595B03022002108A801F0D2FA002309
:1002F800039304930593069307930193184A116C8B
:1003080041F080511164126C02F080520192019AFE
:100318000293144A116841F440411160126802F4D2
:1003280040420292029A0222089201220B92102263
:100338000C920E9308A800F0FDF868B90F230393F8
:100348000021049105910691079103A800F042FB52
:1003580020B915B05DF804FBFFF78CFFFFF78AFFA3
:10036800003802400070004000B583B000F0FAFD8C
:10037800FFF7B6FFFFF746FFFFF77EFFFFF796FF91
:1003880040F6B83000F01AFE0A4B009300238DF8AF
:1003980004306946084800F017F800B9FEE7202144
:1003A800064800F0D7FC0A2316220549054800F044
:1003B8007CFFF3E741540D0AC00000200000024012
:1003C800D81B00087800002010B584B0044600232C
:1003D80001930293ADF80C300A23042200F065FF64
:1003E8000A231A4601A9204600F0C5FF044901A8BE
:1003F80001F057FA10B1012004B010BD0020FBE74E
:10040800F01B0008FEE7FEE7FEE7FEE7FEE77047A1
:100418007047704708B500F0BFFD08BD08B5024831
:1004280001F09EF808BD00BFC000002082B0002186
:1004380000910B4B5A6C42F480425A645A6C02F495
:1004480080420092009A01911A6C42F080521A641C
:100458001B6C03F080530193019B02B0704700BFEF
:100468000038024010B58AB000230593069307931D
:100478000893099303682B4A934204D02A4A93426B
:100488002DD00AB010BD00240194284B5A6C42F0BC
:1004980010025A645A6C02F010020192019A0294F6
:1004A8001A6B42F001021A631B6B03F001030293FB
:1004B800029B4FF4C063059302230693032308931A
:1004C8000723099305A91A4800F05AFB224621463A
:1004D800252000F0F9FC252000F006FDD1E70021D9
:1004E8000391124B1A6C42F400321A641A6C02F42B
:1004F80000320392039A04911A6B42F001021A63C4
:100508001B6B03F001030493049B0C230593022344
:100518000693032308930723099305A9044800F0C9
:100528002FFBAEE7001001400044004000380240B5
:1005380000000240002800F0E08170B582B0044657
:10054800036813F0010F3BD09F4B9B6803F00C032B
:10055800042B2CD09C4B9B6803F00C03082B21D058
:100568006368B3F5803F4FD0B3F5A02F52D0964BB8
:100578001A6822F480321A601A6822F480221A60FB
:100588006368002B50D000F013FD05468E4B1B68A6
:1005980013F4003F14D100F00BFD401B6428F5D97B
:1005A8000320B1E1884B5B6813F4800FD8D0864BE9
:1005B8001B6813F4003F03D06368002B00F09F8191
:1005C800236813F0020F54D07F4B9B6813F00C0F75
:1005D8003ED07D4B9B6803F00C03082B33D0E368B7
:1005E800002B68D0794B01221A6000F0E1FC054627
:1005F800754B1B6813F0020F54D100F0D9FC401B57
:100608000228F5D903207FE16F4A136843F4803349
:100618001360B5E76C4B1A6842F480221A601A68B6
:1006280042F480321A60ABE700F0C2FC0546664B24
:100638001B6813F4003FC3D000F0BAFC401B6428C9
:10064800F5D9032060E1604B5B6813F4800FC6D1D5
:100658005D4B1B6813F0020F03D0E368012B40F0D9
:100668005081594A136823F0F803216943EAC1030A
:100678001360236813F0080F42D063696BB3534BC0
:100688000122C3F8802E00F093FC05464E4B5B6FA9
:1006980013F0020F34D100F08BFC401B0228F5D96F
:1006A800032031E1484A136823F0F803216943EA3B
:1006B800C1031360DDE7454B00221A6000F078FCA7
:1006C8000546414B1B6813F0020FD2D000F070FCB6
:1006D800401B0228F5D9032016E13C4B0022C3F841
:1006E800802E00F065FC0546374B5B6F13F0020F58
:1006F80006D000F05DFC401B0228F5D9032003E179
:10070800236813F0040F77D02F4B1B6C13F0805F16
:1007180033D1002301932C4B1A6C42F080521A6497
:100728001B6C03F080530193019B0125284B1B6828
:1007380013F4807F23D0A368012B34D0052B38D045
:10074800214B1A6F22F001021A671A6F22F0040275
:100758001A67A368002B3DD000F02AFC06461A4B06
:100768001B6F13F0020F46D100F022FC801B41F2F0
:1007780088339842F3D90320C6E00025D6E7144A07
:10078800136843F48073136000F012FC0646104BA4
:100798001B6813F4807FCED100F00AFC801B02286E
:1007A800F5D90320B0E0084A136F43F0010313673B
:1007B800CFE7054B1A6F42F004021A671A6F42F02E
:1007C80001021A67C5E700BF00380240000047422F
:1007D8000070004000F0ECFB0646524B1B6F13F014
:1007E800020F08D000F0E4FB801B41F288339842E6
:1007F800F3D9032088E0EDB9A369002B00F08380CA
:10080800484A926802F00C02082A51D0022B17D0ED
:10081800454B00221A6600F0CBFB0446414B1B688F
:1008280013F0007F42D000F0C3FB001B0228F5D96B
:10083800032069E03B4A136C23F080531364DBE721
:10084800394B00221A6600F0B3FB0546354B1B688E
:1008580013F0007F06D000F0ABFB401B0228F5D94F
:10086800032051E0E369226A1343626A43EA821370
:10087800A26A5208013A43EA0243E26A43EA02637F
:10088800284A5360284B01221A6600F091FB04465F
:10089800244B1B6813F0007F06D100F089FB001B76
:1008A8000228F5D903202FE000202DE000202BE0BE
:1008B800012B2BD01B4B5B6803F48001E26991424A
:1008C80026D103F03F02216A8A4223D1616A47F6A2
:1008D800C0721A40B2EB811F1ED103F44031A26AE4
:1008E8005208013AB1EB024F18D103F07063E26A83
:1008F800B3EB026F14D1002006E0012070470120FD
:1009080002E0012000E0002002B070BD0120FBE7FA
:100918000120F9E70120F7E70120F5E70120F3E7D7
:100928000120F1E7003802400000474208B5264B95
:100938009B6803F00C03042B41D0082B41D1224BB8
:100948005A6802F03F025B6813F4800F12D01E4B06
:100958005968C1F388111D480023A1FB0001FFF766
:1009680017FC194B5B68C3F3014301335B00B0FB11
:10097800F3F008BD144B5868C0F388104FEA401CC8
:10098800BCEB000C6EEB0E0E4FEA8E1343EA9C6331
:100998004FEA8C11B1EB0C0163EB0E03DB0043EA69
:1009A8005173C90011EB000C43F1000399020023B5
:1009B8004FEA8C2041EA9C51FFF7EAFBD1E7034854
:1009C800D7E70348D5E700BF0038024040787D01EB
:1009D8000024F400002800F09B8070B50D46044602
:1009E8004F4B1B6803F007038B4208D2CBB24C4A2B
:1009F8001370136803F007038B4240F08B80236861
:100A080013F0020F17D013F0040F04D0454A93686F
:100A180043F4E0539360236813F0080F04D0414A6D
:100A2800936843F4604393603E4A936823F0F0036D
:100A3800A1680B439360236813F0010F32D06368F9
:100A4800012B21D09A1E012A25D9364A126812F0A4
:100A5800020F61D033498A6822F0030213438B6086
:100A680000F0A6FA06462F4B9B6803F00C03626859
:100A7800B3EB820F16D000F09BFA801B41F288334B
:100A88009842F0D9032042E0264A126812F4003F47
:100A9800E0D101203BE0234A126812F0007FD9D14F
:100AA800012034E01E4B1B6803F00703AB4207D953
:100AB800EAB21B4B1A701B6803F00703AB422DD137
:100AC800236813F0040F06D0164A936823F4E05302
:100AD800E1680B439360236813F0080F07D0114AAD
:100AE800936823F46043216943EAC1039360FFF7E5
:100AF8001DFF0C4B9B68C3F303130B4AD35CD84010
:100B08000A4B18600A4B186800F006FA002070BDFE
:100B1800012070470120FAE70120F8E70120F6E7F5
:100B2800003C024000380240FC1B0008080000207E
:100B380004000020014B1868704700BF080000201F
:100B480008B5FFF7F7FF044B9B68C3F38223034AFA
:100B5800D35CD84008BD00BF00380240F41B000831
:100B680008B5FFF7E7FF044B9B68C3F34233034A1A
:100B7800D35CD84008BD00BF00380240F41B000811
:100B880000230F2B00F2D78070B582B065E085682E
:100B98004FEA430E032404FA0EF425EA0405CC6850
:100BA80004FA0EF42C438460446824EA02044A6878
:100BB800C2F300129A40224342605CE0DC08083429
:100BC80050F8242003F00705AD004FF00F0E0EFA81
:100BD80005FE22EA0E0E0A69AA4042EA0E0240F811
:100BE80024205CE0042200E0002202FA0EF22A43EC
:100BF8000234514D45F82420504A94686FEA0C029B
:100C080024EA0C054E6816F4801F01D04CEA04054E
:100C18004A4CA560E46802EA04054E6816F4001F11
:100C280001D04CEA0405454CE560646802EA040515
:100C38004E6816F4003F01D04CEA04053F4C65604D
:100C4800246822404D6815F4803F01D04CEA040224
:100C58003A4C226001330F2B6BD801229A400C6862
:100C680004EA020C32EA0404F4D14C6804F00304E8
:100C7800013C012C8BD94A6802F00302032A09D0EF
:100C8800C4685D000322AA4024EA02048A68AA40D4
:100C98002243C2604A6802F00302022A8ED0046826
:100CA8004FEA430E032202FA0EF224EA02044A68CB
:100CB80002F0030202FA0EF2224302604A6812F4BA
:100CC800403FC7D0002201921D4A546C44F480442E
:100CD8005464526C02F480420192019A9C08A51C4B
:100CE800154A52F8255003F0030E4FEA8E0E0F22D4
:100CF80002FA0EF225EA0205124A90423FF474AF56
:100D080002F5806290420ED002F5806290420CD0CB
:100D180002F5806290420AD002F5806290423FF468
:100D280061AF072261E701225FE702225DE7032244
:100D38005BE702B070BD704700380140003C0140DD
:100D480000380240000002400AB18161704709047E
:100D580081617047436901EA030221EA030141EA1C
:100D680002418161704770B50446866D00F020F934
:100D780094F83530DBB2022B06D08023636500235C
:100D880084F83430012070BD05462268136823F0CA
:100D9800160313602268536923F080035361236CA0
:100DA800E3B12268136823F008031360226813680C
:100DB80023F00103136023681B6813F0010F11D09F
:100DC80000F0F6F8431B052BF5D9202363650320B3
:100DD80084F83500002384F83430D4E7A36C002B62
:100DE800DFD1E3E7E26D3F239340B360012384F84A
:100DF8003530002084F83400C5E790F83530DBB290
:100E0800022B03D08023436501207047052380F817
:100E180035300268136823F001031360002070471F
:100E2800002807DB00F01F02400901239340024A13
:100E380042F82030704700BF00E100E0002808DBDE
:100E48000901C9B200F1604000F5614080F8001363
:100E5800704700F00F000901C9B2014B19547047DF
:100E680014ED00E000B500F00700C0F1070CBCF17C
:100E7800040F28BF4FF0040C031D062B0FD9C31E07
:100E88004FF0FF3E0EFA0CF021EA000199400EFAED
:100E980003FE22EA0E0241EA02005DF804FB002389
:100EA800EEE70000074AD36823F4E0631B041B0C39
:100EB800000200F4E060034343F0BF6343F40033EF
:100EC800D360704700ED00E010B50446054BD868C4
:100ED800C0F30220FFF7C6FF01462046FFF7AEFF2A
:100EE80010BD00BF00ED00E008B5FFF799FF08BD91
:100EF8000138B0F1807F0BD24FF0E0235861054AEA
:100F0800F02182F823100020986107221A617047A7
:100F18000120704700ED00E010B504460E4B1A782A
:100F28004FF47A73B3FBF2F30C4A1068B0FBF3F09A
:100F3800FFF7DEFF68B90F2C01D901200AE0002273
:100F480021464FF0FF30FFF7BFFF054B1C60002024
:100F580000E0012010BD00BF0000002008000020B4
:100F68000400002008B50B4B1A6842F400721A609E
:100F78001A6842F480621A601A6842F480721A6031
:100F88000320FFF78FFF0F20FFF7C6FFFFF74EFA8A
:100F9800002008BD003C0240034A1168034B1B783F
:100FA8000B441360704700BF0801002000000020B8
:100FB800014B1868704700BF0801002038B5044687
:100FC800FFF7F6FF0546B4F1FF3F02D0044B1B784C
:100FD8001C44FFF7EDFF401BA042FAD338BD00BF09
:100FE80000000020034AD2F8883043F47003C2F8A6
:100FF8008830704700ED00E0026802F10C0353E806
:10100800003F23F490730C3242E800310029F3D1F9
:10101800026802F1140353E8003F23F0010314327D
:1010280042E800310029F3D1036B012B05D02023BE
:1010380080F84230002303637047026802F10C0312
:1010480053E8003F23F010030C3242E80031002936
:10105800F3D1ECE790F84130DBB2212B01D002202C
:1010680070478368B3F5805F17D0036A5A1C026221
:101078001A7803685A60C38C9BB2013B9BB2C38445
:101088004BB90268D36823F08003D3600268D36841
:1010980043F04003D360002070470369002BE4D17C
:1010A800036A1B880268C3F308035360036A0233A8
:1010B8000362E0E710B504460268136923F440535D
:1010C800C1680B431361836802691A4343691A4371
:1010D800C3691A430168CB6823F4164323F00C0351
:1010E8001343CB600268536923F4407381690B434F
:1010F80053610368314A934206D002F580629342F5
:1011080002D0FFF71DFD01E0FFF72AFDE369B3F503
:10111800004F29D00021031849411B1841F1000153
:10112800C90041EA5371DB00181863684FEA83026B
:101138004FEA937341F10001FFF72AF8204AA2FB16
:1011480000314909642303FB11031B013233A2FB5D
:1011580003235B0903F0F00202EB011203F00F0313
:10116800216813448B6010BD0023021843EB030170
:10117800121841F10001C90041EA5271D200101859
:1011880041F10001626892185B41FFF701F80C4ACF
:10119800A2FB00314909642303FB1103DB0032334E
:1011A800A2FB03235B095A0002F4F87202EB011256
:1011B80003F00703216813448B60D4E70010014053
:1011C8001F85EB512DE9F04383B005460E461746BF
:1011D8009946DDF828802B681C6836EA04040CBFA1
:1011E80001240024BC4228D1B8F1FF3FF3D0FFF717
:1011F800DFFEA0EB0900404523D8B8F1000F22D04C
:101208002B68DA6812F0040FE5D0802EE3D0402E68
:10121800E1D01A6812F0080FDDD0002401941A6892
:1012280001925B680193019B2846FFF7E5FE0823BE
:101238006B6485F84040012000E0002003B0BDE861
:10124800F0830320FAE70320F8E760B310B50446FB
:1012580090F8413013B3242384F841302268D368CE
:1012680023F40053D3602046FFF724FF2268136954
:1012780023F4904313612268536923F02A035361CE
:101288002268D36843F40053D360002060642023AD
:1012980084F8413084F84230606310BD80F84030F3
:1012A800FFF7E0F8D7E7012070472DE9F04182B059
:1012B8001E4690F84130DBB2202B56D104460D462D
:1012C8009046002955D00AB901204FE00023436415
:1012D800212380F84130FFF76BFE0746A4F82480ED
:1012E800A4F82680A368B3F5805F02D04FF0000809
:1012F80014E023692BB34FF000080FE0202384F893
:101308004130032032E038F8023B2268C3F3080377
:101318005360E28C92B2013A92B2E284E38C9BB2BF
:1013280093B100963B46002280212046FFF74AFFF2
:101338000028E3D1002DE6D015F8012B23685A6068
:10134800E7E7A8460025E9E700963B46002240214A
:101358002046FFF737FF18B9202384F8413005E00D
:10136800202384F84130032000E0022002B0BDE8C9
:10137800F0810120FAE72DE9F04182B01E4690F88D
:101388004230DBB2202B59D104460D469046002945
:1013980058D00AB9012052E000234364222280F881
:1013A80042200363FFF704FE0746A4F82C80A4F844
:1013B8002E80A368B3F5805F02D04FF000081CE0D0
:1013C800236913B14FF0000817E0A846002514E080
:1013D800202384F84230032031E023685B68C3F39C
:1013E800080328F8023B03E023685B682B7001358B
:1013F800E28D92B2013A92B2E285E38D9BB2C3B11B
:1014080000963B46002220212046FFF7DBFE0028FD
:10141800DED1002DE1D0A368B3F5805FE4D013B925
:101428002369002BE0D023685B6803F07F032B70EF
:10143800DDE7202384F84230002000E0022002B0DB
:10144800BDE8F0810120FAE7704708B50168CA686D
:1014580022F04002CA60202280F84120FFF7F4FF02
:10146800002008BD704708B5806B0023C385C3847E
:10147800FFF7F8FF08BD704790F84230DBB2222B27
:1014880069D18368B3F5805F4FD0826AB3F5805F16
:1014980004D0002B56D10369002B53D103685B6835
:1014A8001370836A01338362C38D9BB2013B9BB285
:1014B800C385002B51D100B583B00268D36823F0EF
:1014C8002003D3600268D36823F48073D360026872
:1014D800536923F001035361202380F8423000232D
:1014E8004363036B012B33D100230363026802F1CA
:1014F8000C0353E8003F23F010030C3242E800319C
:101508000029F3D103681A6812F0100F06D00022E0
:1015180001921A6801925B680193019B818DFFF724
:10152800AAFF002003B05DF804FB0269002AACD1D1
:10153800826A03685B68C3F308031380836A023313
:101548008362B1E703685B6803F07F031370A8E761
:10155800FEF782FEE5E70220704700207047000092
:1015680010B582B0044602681368D068516913F058
:101578000F0F09D113F0200F0CD010F0200F09D055
:101588002046FFF779FF16E011F0010115D110F49C
:10159800907F12D1216B012979D013F0800F03D0ED
:1015A80010F0800F40F0148113F0400F03D010F0BA
:1015B800400F40F0118102B010BD13F0010F06D0AA
:1015C80010F4807F03D0626C42F00102626413F071
:1015D800040F04D019B1626C42F00202626413F085
:1015E800020F04D019B1626C42F00402626413F075
:1015F800080F07D010F0200F00D119B1626C42F02B
:1016080008026264626C002AD5D013F0200F02D061
:1016180010F0200F29D123685B6903F04003626C46
:1016280012F0080F00D163B32046FFF7E5FC2368EA
:101638005B6913F0400F20D0226802F1140353E8CD
:10164800003F23F04003143242E800310029F3D16F
:10165800E36B73B1624A1A65E06BFFF7CEFB0028B3
:10166800A9D0E06B036D9847A5E72046FFF704FF74
:10167800D1E72046FFF7F6FE9DE72046FFF7F2FE8A
:1016880099E72046FFF7EEFE0023636493E713F023
:10169800100F82D010F0100F3FF47FAF002301939A
:1016A8001368019353680193019B536913F0400F2A
:1016B80052D0E26B13685B689BB2002B3FF47BAFA0
:1016C800A18D99427FF677AFE385D369B3F5807F23
:1016D80037D0226802F10C0353E8003F23F48073EB
:1016E8000C3242E800310029F3D1226802F11403D8
:1016F80053E8003F23F00103143242E80031002987
:10170800F3D1226802F1140353E8003F23F04003A9
:10171800143242E800310029F3D1202384F8423002
:1017280000232363226802F10C0353E8003F23F0EF
:1017380010030C3242E800310029F3D1E06BFFF7C7
:1017480012FB02236363A18DE38D9BB2C91A89B290
:101758002046FFF790FE2EE7A18DE38D9BB2C91AB4
:1017680089B2E38D9BB2002B3FF425AF00293FF4EB
:1017780022AF226802F10C0353E8003F23F4907370
:101788000C3242E800300028F3D1226802F1140339
:1017980053E8003F23F00103143242E800300028E8
:1017A800F3D1202384F8423000232363226802F116
:1017B8000C0353E8003F23F010030C3242E80030DA
:1017C8000028F3D1022363632046FFF754FEF2E6B4
:1017D8002046FFF73FFCEEE62046FFF736FEEAE636
:1017E8006F14000881628285C28500234364222326
:1017F80080F84230036923B10268D36843F48073E8
:10180800D3600268536943F0010353610268D368E7
:1018180043F02003D3600020704708B590F84230A9
:10182800DBB2202B08D149B10AB9012008BD002339
:101838000363FFF7D7FFF9E70220F7E70120F5E791
:10184800DFF834D0FFF7CEFB0C480D490D4A0023D2
:1018580002E0D458C4500433C4188C42F9D30A4A5D
:101868000A4C002301E013600432A242FBD300F0CB
:101878002FF8FEF779FD70470000022000000020D5
:101888000C0000201C1C00080C0000200C0100208B
:10189800FEE702440346934200D1704703F8011B58
:1018A800F9E70A7870B56AB970BD9A4209D10C4651
:1018B800054614F8013F002BF6D015F8016F9E423B
:1018C800F7D001300378002BEFD11846ECE7000081
:1018D80070B50D4D0D4C641BA4100026A64209D10D
:1018E8000B4D0C4C00F068F9641BA4100026A642AE
:1018F80005D170BD55F8043B98470136EEE755F819
:10190800043B98470136F2E7141C0008141C000831
:10191800141C0008181C00082DE9F04786468C4660
:101928000846089E154674461946002B40F0C280AA
:101938008542B2FA82F245D94AB1C2F1200300FACF
:1019480002FC2EFA03F3954043EA0C0C94404FEA4C
:10195800154EA8B2BCFBFEF8230C0EFB18CC08FBF6
:1019680000F943EA0C43994528D9EB1808F1FF37E9
:1019780004D2994502D9A8F102072B44A3EB090325
:10198800A4B2B3FBFEFC0EFB1C330CFB00F044EAD4
:101998000344A04214D92C190CF1FF3304D2A042FD
:1019A80002D9ACF102032C44241A43EA07401EB1C1
:1019B800D440002334607360BDE8F0874746DDE714
:1019C8006346F1E792BB431B01214FEA154EAFB2C4
:1019D800B3FBFEFC200C0EFB1C330CFB07F840EAA3
:1019E8000343984562D9EB180CF1FF3004D29845AF
:1019F80002D9ACF102002B44A3EB0803A4B2B3FB59
:101A0800FEFC0EFB1C330CFB07F744EA0344A74219
:101A18004ED92C190CF1FF3304D2A74202D9ACF1EC
:101A280002032C44E41B43EA0040C0E7C2F1200350
:101A380020FA03F1954090402EFA03F303434FEA4E
:101A4800154EAFB2B1FBFEFC0EFB1C10190C0CFBC3
:101A580007F841EA0041884504FA02F422D96918D6
:101A68000CF1FF3004D2884502D9ACF102002944B8
:101A7800A1EB08019BB2B1FBFEFC0EFB1C110CFB99
:101A880007F743EA01439F420ED9EB180CF1FF31E7
:101A980004D29F4202D9ACF102012B44DB1B41EA7C
:101AA800004192E76046E3E76146F7E76046A3E74F
:101AB8006346B7E7834206D916B9002108467BE793
:101AC800C6E900E0F9E7B3FA83F78FB9834201D397
:101AD800724508D8BEEB020460EB030301209C4664
:101AE8001EB9002168E73846FAE7C6E9004CF8E76E
:101AF800C7F1200CBB4022FA0CF41C432EFA0CF15F
:101B080020FA0CF3B84001434FEA14490EFA07F5DE
:101B1800B3FBF9F81FFA84FE09FB18300B0C08FB1D
:101B28000EFA43EA00439A4502FA07F240D9E3184D
:101B380008F1FF3004D29A4502D9A8F102002344E3
:101B4800A3EB0A0389B2B3FBF9F809FB183308FBC6
:101B58000EFE41EA03418E452CD9611808F1FF3386
:101B680004D28E4502D9A8F10203214443EA004079
:101B7800A0FB0298A1EB0E014145CE46434602D395
:101B880006D14D4504D2B9EB020E68EB04030138C7
:101B9800002EA6D0B5EB0E0261EB030101FA0CFC96
:101BA80022FA07F34CEA0303F940C6E9003198E743
:101BB8004046C5E74346D9E7F8B500BFF8BC08BCBE
:101BC8009E467047F8B500BFF8BC08BC9E467047F3
:101BD8005B2B5D205769666920496E697469616C81
:101BE800697A65642E0000004F4B00000000000079
:101BF80001020304000000000000000001020304C9
:041C080006070809BA
:081C0C0014FDFF7F0100000040
:041C1400F1010008D2
:041C1800CD010008F2
:0C1C1C0001000000100000000024F40093
:04000005080018498E
:00000001FF
