:020000040800F2
:100000000000022041300008291C00082B1C0008B9
:100010002D1C00082F1C0008311C000800000000E7
:10002000000000000000000000000000331C000879
:10003000351C000800000000371C0008391C0008AF
:10004000913000089130000891300008913000088C
:10005000913000089130000891300008913000087C
:10006000913000089130000891300008913000086C
:10007000913000089130000891300008913000085C
:100080009130000891300008913000080000000015
:100090000000000000000000000000009130000897
:1000A000913000089130000891300008913000082C
:1000B000913000089130000891300008913000081C
:1000C000913000089130000891300008913000080C
:1000D00091300008411C0008913000080000000029
:1000E00091300008913000089130000800000000B5
:1000F0000000000000000000000000009130000837
:100100000000000091300008913000089130000894
:1001100000000000000000000000000000000000DF
:1001200091300008913000089130000891300008AB
:1001300091300008000000000000000000000000F6
:1001400000000000000000000000000091300008E6
:10015000913000089130000891300008913000087B
:1001600091300008913000080000000000000000FD
:10017000000000000000000000000000000000007F
:1001800000000000913000080000000000000000A6
:080190009130000891300008D5
:1001C0000348044B834202D0034B03B118477047E6
:1001D0007000002070000020000000000548064963
:1001E0000B1AD90F01EBA301491002D0034B03B145
:1001F00018477047700000207000002000000000C9
:1002000010B5064C237843B9FFF7DAFF044B13B15E
:100210000448AFF300800123237010BD700000205C
:10022000000000009430000808B5044B1BB10449DD
:100230000448AFF30080BDE80840CFE700000000AD
:10024000740000209430000870B50D4E0D4D761BE3
:10025000B61006D0002455F8043B01349847A64256
:10026000F9D1094E094D761B02F014FFB61006D0E5
:10027000002455F8043B01349847A642F9D170BDDB
:1002800038310008383100083C31000838310008A6
:10029000830730B548D0541E002A3FD0CAB2034667
:1002A00001E0013C3AD303F8012B9D07F9D1032C5F
:1002B0002DD9CDB245EA05250F2C45EA054536D99D
:1002C000A4F1100222F00F0C03F1200EE6444FEAD5
:1002D000121C03F1100242E9045542E902551032A2
:1002E0007245F8D10CF1010214F00C0F03EB02126D
:1002F00004F00F0C13D0ACF1040323F00303043318
:10030000134442F8045B9342FBD10CF003042CB17C
:10031000CAB21C4403F8012B9C42FBD130BD644699
:100320001346002CF4D1F9E703461446BFE71A46FA
:10033000A446E0E70CB410B59CB01EAB6FF00044CF
:10034000CDE906140291084953F8042B059102A93E
:100350000193049400F048FB029B00221A701CB029
:10036000BDE8104002B070470802FFFF0EB410B5A0
:100370009DB06FF000411FABCDE906010491094922
:1003800053F8042B0290084C0868019302A90594C5
:1003900000F02AFB029B00221A701DB0BDE810403D
:1003A00003B07047000000200802FFFF2DE9F04F66
:1003B000012BADF21C4D1D4681460F46904640F282
:1003C00045810123002419464FF0FF309C4606E08A
:1003D000A3EB000C1C46012163189D4210D908EBC9
:1003E000000218F80360525C9642F1D300F082805C
:1003F0004FF0010C20466146644463189D42EED8DC
:10040000CDF808C04FF0010C002461464FF0FF36D4
:10041000634606E0A3EB060C1C46012163189D42CF
:100420000FD908EB010218F803E0925D9645F1D868
:1004300066D04FF0010C26466146644463189D4225
:10044000EFD8013600F1010BB34502D8CDF808C052
:10045000B34605AB0DF2144243F8045F9342FBD15F
:10046000002D00F0F8806C1E06AE08F1FF3208EB9C
:100470000400019612F8011FD3432B4443449042D9
:1004800046F82130F6D1029B5A4608EB030140465C
:1004900000F09AF9002840F08280029B0BF1FF32B5
:1004A000EB1A824606460592039309EB060E019A63
:1004B0001EF8043052F8233043B3BAF1000F04D0D1
:1004C000029A9342039A38BF13461E444FF0000A23
:1004D0007B1BB342E9D209EB070045F4006100F051
:1004E0007DFE07447B1BB342DFD200200DF21C4D82
:1004F000BDE8F08F8C4512BF0131644401216BE7E8
:1005000061450ABF64180131012187E7D3455B4685
:1005100038BF5346A34211D2591E9A1941444A4446
:1005200002E00133A34209D212F8010B11F801CF06
:100530008445F6D0CBF101021644C6E7D345059BAE
:1005400040F282800BEB06024A4408EB0B01CDF827
:1005500010B002E0534516D0034612F8010D11F811
:1005600001CD844503F1010B03F1FF30F2D05B466E
:10057000DDF810B00AF1010A9A450BD8029BDDF8AC
:100580000CA01E44A4E753460AF1010A9A45DDF87F
:1005900010B0F3D970460DF21C4DBDE8F08FA5EBFD
:1005A0000B035B4538BF5B46013304930BF1FF330C
:1005B0000293CBF101030026039345F4006A09EB93
:1005C0000601019A0B5D52F823306BB11E447B1B70
:1005D0009E42F4D909EB0700514600F0FFFD0744A5
:1005E0007B1B9E42EBD980E7A34514D2029B0BEB09
:1005F000060208EB030C4A445B4602E00133A342C7
:1006000009D212F8010B1CF801EF8645F6D0039AC7
:1006100016441E44DBE7BBF1000F10D00BEB0600C5
:10062000484408EB0B0201E0434508D012F801ED05
:1006300010F801CDE6451346F6D0049BC6E7084600
:100640000DF21C4DBDE8F08F5B4693E7012302934A
:100650004FF0000BFDE606AB4FF0FF34019312E7BD
:100660002DE9F0410D46097890B00446002953D099
:100670006A78002A00F08380AB78002B50D0E878AD
:10068000002800F083802B79002B57D0284600F0FB
:1006900037FD064640F40071204600F09FFD86427B
:1006A0005CD8FE2E00F28780801B27184022711C28
:1006B0006846FFF7EDFD7EB16A1E5FFA86FC901971
:1006C00012F8013F03F03F0340336B44A91A614421
:1006D000824203F8401CF3D1013CA35D03F03F03C9
:1006E00040336B4413F8400C0444A74203D23AE071
:1006F0004444A74237D314F806C00CF03F0C0CF169
:1007000040030DEB030C2046324629461CF8408C72
:1007100000F05AF80028EBD1204610B0BDE8F08177
:10072000007842EA014200E00C4640EA0343611CC3
:10073000A0B19A426078F7D1013CEDE722786AB126
:10074000296809BA01E099421ED042EA03232046F3
:1007500014F8012F002AF6D1994215D00024204622
:1007600010B0BDE8F081BB5DB819002BF6D04FF496
:10077000006100F033FD0744BC42ADD9EEE710B094
:10078000BDE8F04100F038BCC41EC5E7120442EADF
:10079000016242EA03232178024600E02C4641EA46
:1007A0000200651C02020029D8D0B3EB002F61784B
:1007B000F4D1023CB0E7014633462A46204610B049
:1007C000BDE8F041F2E500BF032A70B515D940EA53
:1007D000010C1CF0030F04460B4621D1194620469C
:1007E0000E680568B54204F1040403F1040317D14F
:1007F000043A032A20461946F0D8541EA2B100F14B
:10080000FF3C013901E0C3180CD01CF801EF11F8CE
:10081000012F9645A4EB0C03F5D0AEEB020070BDA2
:10082000541EECE7184670BD104670BD2DE9F04728
:100830008F689F420C461D46164638D882468889E6
:1008400010F4906F0ED108683D462A46314600F0FC
:10085000C1FDA2682368D21B2B44A2602360002044
:10086000BDE8F0874B69096903EB4308236808EB8F
:10087000D878A3EB01096B1C4FEA68084B44434549
:10088000424684BF98464246430513D5114650461A
:1008900000F07EFE074608B321694A4600F000FDDD
:1008A000A38923F4906343F08003A38107E00868E1
:1008B0001F46CAE7504600F0C5FE074650B107EB99
:1008C0000900A8EB09032761C4F81480A360206025
:1008D0002F46BAE72169504600F0F8FD0C23CAF80C
:1008E0000030A38943F040034FF0FF30A381B7E706
:1008F0002DE9F04F936883B09146002B6ED01768B6
:100900008D6880460C460868083744E0A38913F4D4
:10091000906F2ED0D4E90415A0EB010A05EB450534
:1009200005EBD5750AEB06006D100130A8422A468A
:1009300084BF05462A465B0537D51146404600F080
:1009400027FE00283BD052462169019000F0A8FC08
:10095000A289019B22F4906242F08002A281A5EB61
:100960000A0203EB0A006561A2602361206035463C
:10097000B2465946524600F02DFDA068D9F808103D
:100980002368451B8E1B03EB0A00A5602060C9F895
:1009900008601EB3083757E902B6002EFAD0B542F8
:1009A000AA46B3D93546B246E3E7404600F04AFED0
:1009B00003460028D3D12169404600F087FD0C236F
:1009C000C8F80030A389002243F040034FF0FF3005
:1009D000A381C9E9012203B0BDE8F08F0020C9F866
:1009E000040003B0BDE8F08F2DE9F04F92468A89EC
:1009F00015069DB0884681461C4603D50A69002A23
:100A000000F0EF80002209929AF800307E4D0394A6
:100A100020228DF8292030228DF82A200126002B53
:100A200072D0544603E014F8013F002B76D0252BFA
:100A3000F9D1B4EB0A0B74D12278002A64D00023D8
:100A40004FF0FF32CDE90523049307938DF853301F
:100A50001A93013404E0049A06FA03F3134304934F
:100A6000A246052214F8011B284600F0C9FB431BCF
:100A70000028F0D1049BD80644BF20228DF85320D3
:100A800019079AF8001044BF2B228DF853202A2909
:100A900054D1039A11680432002903927CDB079138
:100AA0009AF801100AF1010A2E2959D0574C032255
:100AB000204600F0A5FB40B1049B001B402404FA33
:100AC00000F0034304930AF1010A1AF8011B50488D
:100AD0008DF82810062200F093FB002862D04D4BC1
:100AE000002B52D003AA00924B4B424604A9484621
:100AF000AFF3008007467A1C06D0099B3B4409935C
:100B00009AF80030002B8CD1B8F80C305B0654BF3B
:100B100009984FF0FF301DB0BDE8F08FB4EB0A0B21
:100B2000F2D05B46524641464846FFF77FFE013011
:100B3000EAD0099B22785B4409937EE7A1F1300259
:100B4000092AB1D8079B1AF8011F03EB830302EBB4
:100B50004303A1F13002092AF5D92E290793A5D123
:100B60009AF801102A2927D1039B9AF802101A68D3
:100B700005920433002A0AF102000393B8BF4FF034
:100B8000FF338246B8BF059390E7039B073323F0FA
:100B9000070308330393B0E7494243F00203079188
:100BA00004937DE703AA00921B4B424604A94846E2
:100BB00000F0CAF807469EE7A1F130020023092A97
:100BC00005930AF1010A3FF671AF1AF8011F03EB12
:100BD000830302EB4303A1F13002092AF5D90593FF
:100BE00064E7402100F0D4FCC8F80000C8F8100009
:100BF00018B14022C8F8142004E70C23C9F80030CB
:100C00004FF0FF3087E700BFF4300008FC300008E9
:100C100000310008000000002D0800082DE9F84F01
:100C200092461F460A698B68DDF828909A42B8BF41
:100C30001A46CAF8002091F843300C46064613B114
:100C40000132CAF80020226891065DD5DAF800303A
:100C50000233CAF80030226812F0060F11461ED186
:100C6000E168CB1A002BD8BF114618DD04F1190B2F
:100C70004FF0000805E0E568DAF80030ED1A454568
:100C80000CDD01235A4639463046C847013008F189
:100C90000108F0D14FF0FF30BDE8F88F216894F8DB
:100CA0004330003B18BF01238A060AD5E1185A1CBD
:100CB000302081F84300224494F8451082F8431014
:100CC000023304F1430239463046C8470130E1D0CF
:100CD000236803F00603042B1DD0A3682269934206
:100CE00025DD4FF000089B1A98441A34002501E0D6
:100CF00045451CDA0123224639463046C8470130B3
:100D000005F10105F4D1C5E712F0060F12D0003B42
:100D100018BF0123D5E7DAF80030E1682269C91A63
:100D2000A368934221EAE178DDDC0029DDDC0020C4
:100D3000BDE8F88FE168DAF80030CB1A002BD8BF95
:100D4000114693DCABE700BF2DE9F0470C4684B0B9
:100D50009046227E0C990746994604F14300002AEA
:100D600033D0A2F15803DDB2202D67D8202B65D8EF
:100D7000DFE813F0DE0064006400640064006400D7
:100D800064006400640064006400A3006E006400FA
:100D90006400640064006E00640064006400640029
:100DA00021007F00C00064006400AE0064007F008A
:100DB00064006400E50023681A0640F104810B68B2
:100DC00062691D1D0D601B681A6000238246236145
:100DD000CDF80090434603AA21463846FFF71EFF90
:100DE000013020D02369524641463846C847013079
:100DF00019D02368E068039E9B0719D5831B002B3D
:100E000016DD04F1190A002504E0E068039E831B47
:100E1000AB420DDD0123524641463846C8470130FA
:100E200005F10105F1D14FF0FF3004B0BDE8F087C6
:100E3000B042B8BF304604B0BDE8F087012384F863
:100E40004220236104F1420A002384F84330BFE7C3
:100E500023681A0602D45E0600F1C1800D682A6874
:100E600004350D601546002A6BDBDFF884C10A26C5
:100E700010E023681D0640F19C800B681D1D0D606D
:100E80001D68DFF86CC16F2A0CBF08260A260023F4
:100E900084F843306268A260002A7FDB236823F075
:100EA00004032360002D5BD1002A79D18246082EED
:100EB00065D0A0EB0A0020618AE70B680122186860
:100EC00004330B6004F1420A84F842002261BBE75C
:100ED0000B686268181D0860D3F800A00021504616
:100EE00000F08EF9002800F08180A0EB0A0060601D
:100EF0002061A9E7236843F0200323607822DFF80C
:100F0000F4C084F845200A68151D0D601D0643D401
:100F1000590641D51588DE0744BF43F020032360FE
:100F2000002D44D1236823F0200323601026AEE770
:100F3000582384F84530DFF8B8C02368E3E7236816
:100F4000DCE76268A2602D21002AC5F1000584F863
:100F5000431002DB23F004032360DFF894C00A2669
:100F60008246B5FBF6F306FB13512A461CF8011026
:100F70000AF8011DB2421D46F3D2082E99D123680A
:100F8000D90796D5626823699A4292DC30230AF821
:100F9000013C0AF1FF3A8CE71568BCE7002DDFD170
:100FA0009CF8003084F8423004F1420A7FE71026B2
:100FB0006DE713F0400F0B6803F104050D600CBFE3
:100FC0001D681D885DE713F0400F0B68626903F12F
:100FD00004050D601B6814BF1A801A60F5E60A68E4
:100FE000B2F9005004320A602A463CE760687FE7A5
:100FF000083100081C31000811F0FF01034644D0FD
:10100000820732D110B5046841EA012E4EEA0E4E35
:101010008EEA0402A2F1013323EA0203A4F10132B1
:1010200022EA0402134313F0803F0FD150F8044F1B
:1010300084EA0E0CA4F10133ACF1013223EA04037B
:1010400022EA0C02134313F0803FEFD0037823B958
:1010500036E010F8013F002B32D09942F9D110BD93
:101060008A4211D09A071846CCD0184613F8012BA3
:10107000002AF5D1104670479907184607D0184640
:1010800001330278002AF7D170478207F7D102684E
:10109000A2F1013323EA020313F0803F08D150F894
:1010A000042FA2F1013323EA020313F0803FF6D0AC
:1010B0000378002BE8D010F8013F002BFBD17047DC
:1010C000184610BD000000000000000000000000F5
:1010D0000000000000000000000000000000000010
:1010E0000000000000000000000000000000000000
:1010F00000000000000000000000000000000000F0
:1011000090F800F06DE9024520F007016FF0000C47
:1011100010F0070491F820F040F049804FF00004EF
:101120006FF00700D1E9002391F840F000F10800CA
:1011300082FA4CF2A4FA8CF283FA4CF3A2FA8CF302
:101140004BBBD1E9022382FA4CF200F10800A4FA69
:101150008CF283FA4CF3A2FA8CF3E3B9D1E90423BD
:1011600082FA4CF200F10800A4FA8CF283FA4CF3F4
:10117000A2FA8CF37BB9D1E9062301F1200182FAAE
:101180004CF200F10800A4FA8CF283FA4CF3A2FAB4
:101190008CF3002BC6D0002A04BF04301A4612BAC2
:1011A000B2FA82F2FDE8024500EBD2007047D1E9C5
:1011B000002304F00305C4F100004FEAC50514F054
:1011C000040F91F840F00CFA05F562EA05021CBF25
:1011D00063EA050362464FF00004A9E771B10346D4
:1011E00000EB010C01E0634506D01A46013311788B
:1011F0000029F8D1101A7047181A7047084670472E
:1012000001F0FF01102A2BDB10F0070F08D010F8B7
:10121000013B013A8B422DD010F0070F42B3F6D1BB
:10122000F0B441EA012141EA014122F007047FF0D4
:1012300000070023F0E80256083C85EA010586EA2B
:10124000010685FA47F5A3FA87F586FA47F6A5FA67
:1012500087F68EB9EED1F0BC01F0FF0102F0070273
:1012600032B110F8013B013A83EA010313B1F8D11E
:101270000020704701387047002D06BF35460338FF
:10128000073815F0010F07D1013015F4807F02BF38
:10129000013015F4C03F0130F0BC0138704700BF89
:1012A000844641EA000313F003036DD1403A41D371
:1012B00051F8043B40F8043B51F8043B40F8043B30
:1012C00051F8043B40F8043B51F8043B40F8043B20
:1012D00051F8043B40F8043B51F8043B40F8043B10
:1012E00051F8043B40F8043B51F8043B40F8043B00
:1012F00051F8043B40F8043B51F8043B40F8043BF0
:1013000051F8043B40F8043B51F8043B40F8043BDF
:1013100051F8043B40F8043B51F8043B40F8043BCF
:1013200051F8043B40F8043B51F8043B40F8043BBF
:10133000403ABDD2303211D351F8043B40F8043B5F
:1013400051F8043B40F8043B51F8043B40F8043B9F
:1013500051F8043B40F8043B103AEDD20C3205D36F
:1013600051F8043B40F8043B043AF9D2043208D067
:10137000D2071CBF11F8013B00F8013B01D30B88D9
:1013800003806046704700BF082A13D38B078DD0B7
:1013900010F003038AD0C3F10403D21ADB071CBF89
:1013A00011F8013B00F8013B80D331F8023B20F8F3
:1013B000023B7BE7043AD9D3013A11F8013B00F82C
:1013C000013BF9D20B7803704B7843708B788370B4
:1013D0006046704788420DD98B1883420AD900EBCA
:1013E000020CBAB1624613F801CD02F801CD994260
:1013F000F9D170470F2A0ED8034602F1FF3C4AB1DB
:101400000CF1010C013B8C4411F8012B03F8012F66
:101410006145F9D1704740EA01039B0750D1A2F121
:10142000100370B501F1200C23F00F0501F1100E2F
:1014300000F11004AC441B095EF8105C44F8105C29
:101440005EF80C5C44F80C5C5EF8085C44F8085CE0
:101450005EF8045C44F8045C0EF1100EE64504F1FD
:101460001004E9D1013312F00C0F01EB031102F06B
:101470000F0400EB031327D0043C24F003064FEACB
:10148000940C1E441C1F8E465EF8045B44F8045FF7
:10149000B442F9D10CF1010402F0030203EB84031E
:1014A00001EB840102F1FF3C4AB10CF1010C013B5C
:1014B0008C4411F8012B03F8012F6145F9D170BD5F
:1014C00002F1FF3C03469BE72246EBE7002958D098
:1014D00030B551F8043C83B0002BA1F10404B8BF2F
:1014E000E418019000F0E8F8284A0198136833B135
:1014F000A3420DD9216804EB010C63452FD0636032
:10150000146003B0BDE8304000F0D8B8A34210D852
:101510001A465B68002BF9D1116802EB010C644597
:1015200019D02FD36360546003B0BDE8304000F0A1
:10153000C5B8116802EB010CA44516D022D8216869
:1015400004EB010C6345EDD11D685B682944C4E9D7
:1015500000135460D5E7236819441160D1E71D6872
:101560005B682944C4E90013CAE72468214454187D
:10157000A3421160C5D1D3E900432144C2E900135D
:10158000BFE770470C230360BBE700BF8C0000205F
:10159000F8B5CD1C25F0030508350C2D38BF0C25FA
:1015A000002D064623DBA94221D8254F00F084F800
:1015B0003A6822B3144603E063682246FBB11C4636
:1015C00023685B1BF8D40B2B15D8636894420CBFBF
:1015D0003B605360304600F071F804F10B00231DAE
:1015E00020F00700C21A01D01B1AA350F8BD0C232B
:1015F00033600020F8BD23601C442560EAE7796869
:10160000C9B12946304600F045F8431C0CD0C41C33
:1016100024F00304A04205D0211A304600F03AF825
:10162000013001D02560D5E70C233046336000F04F
:1016300045F80020F8BD304600F02CF87860E0E76F
:101640008C000020F8B51446F9B1CAB106460D4623
:1016500000F036F8A04202D32F463846F8BD2146A6
:101660003046FFF795FF07460028F6D02246294668
:10167000FFF716FE30462946FFF728FF3846F8BD2B
:101680002746FFF723FF3846F8BDBDE8F84011466E
:10169000FFF77EBF38B5074D0022044608462A6092
:1016A00000F018F8431C00D038BD2B68002BFBD08D
:1016B000236038BD94000020704700BF704700BF12
:1016C00051F8040C0028A0F10400BCBF0B58C0184E
:1016D000704700BF044A05491368002B08BF0B463A
:1016E00018441060184670479800002080010020C0
:1016F00053B94AB9002908BF00281CBF4FF0FF3179
:101700004FF0FF3000F074B9ADF1080C6DE904CE74
:1017100000F006F8DDF804E0DDE9022304B07047CC
:101720002DE9F047089D04468E46002B4DD18A4294
:10173000944669D9B2FA82F252B101FA02F3C2F1C7
:10174000200120FA01F10CFA02FC41EA030E944058
:101750004FEA1C48210CBEFBF8F61FFA8CF708FB79
:1017600016E341EA034306FB07F199420AD91CEB51
:10177000030306F1FF3080F01F81994240F21C8183
:10178000023E63445B1AA4B2B3FBF8F008FB1033CB
:1017900044EA034400FB07F7A7420AD91CEB040400
:1017A00000F1FF3380F00A81A74240F207816444D0
:1017B000023840EA0640E41B00261DB1D440002355
:1017C000C5E900433146BDE8F0878B4209D9002DB9
:1017D00000F0EF800026C5E9000130463146BDE843
:1017E000F087B3FA83F6002E4AD18B4202D38242AD
:1017F00000F2F980841A61EB030301209E46002D5C
:10180000E0D0C5E9004EDDE702B9FFDEB2FA82F2B0
:10181000002A40F09280A1EB0C014FEA1C471FFA0E
:101820008CFE0126200CB1FBF7F307FB131140EAF5
:1018300001410EFB03F0884208D91CEB010103F1C2
:10184000FF3802D2884200F2CB804346091AA4B284
:10185000B1FBF7F007FB101144EA01440EFB00FE58
:10186000A64508D91CEB040400F1FF3102D2A645BD
:1018700000F2BB800846A4EB0E0440EA03409CE75C
:10188000C6F12007B34022FA07FC4CEA030C20FA09
:1018900007F401FA06F31C43F9404FEA1C4900FA29
:1018A00006F3B1FBF9F8200C1FFA8CFE09FB1811A6
:1018B00040EA014108FB0EF0884202FA06F20BD919
:1018C0001CEB010108F1FF3A80F08880884240F269
:1018D0008580A8F102086144091AA4B2B1FBF9F0AD
:1018E00009FB101144EA014100FB0EFE8E4508D9A8
:1018F0001CEB010100F1FF346CD28E456AD902382D
:10190000614440EA0840A0FB0294A1EB0E01A14211
:10191000C846A64656D353D05DB1B3EB080261EB7F
:101920000E0101FA07F722FA06F3F1401F43C5E959
:10193000007100263146BDE8F087C2F12003D8408F
:101940000CFA02FC21FA03F3914001434FEA1C47D1
:101950001FFA8CFEB3FBF7F007FB10360B0C43EAC3
:10196000064300FB0EF69E4204FA02F408D91CEB73
:10197000030300F1FF382FD29E422DD90238634471
:101980009B1B89B2B3FBF7F607FB163341EA034111
:1019900006FB0EF38B4208D91CEB010106F1FF3860
:1019A00016D28B4214D9023E6144C91A46EA004657
:1019B00038E72E46284605E70646E3E61846F8E6E9
:1019C0004B45A9D2B9EB020864EB0C0E0138A3E732
:1019D0004646EAE7204694E74046D1E7D0467BE713
:1019E000023B614432E7304609E76444023842E78B
:1019F000704700BF30B587B000240194029403946F
:101A00000494059400940E4B1A6B42F001021A6381
:101A10001B6B03F001030093009B0A4D224620211B
:101A2000284600F09DFD2023019301230293039497
:101A3000049401A9284600F0B3FC07B030BD00BFF4
:101A4000003802400000024000B583B001900A2235
:101A5000034901A801F0E1FA03B05DF804FB00BFFF
:101A60002C01002072B6FEE708B50A480A4B036055
:101A70004FF4E133436000238360C36003610C22B1
:101A800042618361C36100F0DEFF00B908BDFFF76A
:101A9000E9FF00BFE40000200044004008B50A4808
:101AA0000A4B03604FF4E133436000238360C3605B
:101AB00003610C2242618361C36100F0C4FF00B97D
:101AC00008BDFFF7CFFF00BF9C00002000100140C1
:101AD00000B595B03022002108A8FEF7D9FB0023FD
:101AE000039304930593069307930193184A116C8B
:101AF00041F080511164126C02F080520192019AFF
:101B00000293144A116841F440411160126802F4D2
:101B100040420292029A0222089201220B92102263
:101B20000C920E9308A800F017F968B90F230393DD
:101B30000021049105910691079103A800F05AFB3A
:101B400020B915B05DF804FBFFF78CFFFFF78AFFA3
:101B5000003802400070004010B582B000F0FEFD79
:101B6000FFF7B6FFFFF746FFFFF77EFFFFF796FF91
:101B700040F6B83000F01EFE0E4800F045F800B9FF
:101B8000FEE7044620210C4800F0F0FC22460B49F9
:101B90006846FEF7EBFB0A4C0A23072269462046FB
:101BA00000F081FF0A230D220649204600F07BFF4A
:101BB000E6E700BF9C00002000000240AC300008B7
:101BC000E4000020B830000810B586B004460023B9
:101BD000019302930393049305930A23042200F0D4
:101BE00062FF0A23142201A9204600F0C2FF054922
:101BF00001A8FEF735FD10B1002006B010BD012090
:101C0000FBE700BFC830000838B505460449FFF7B8
:101C1000DBFF044603492846FFF7D6FF204438BDC2
:101C2000CC300008D4300008FEE7FEE7FEE7FEE710
:101C3000FEE770477047704708B500F0A9FD08BD82
:101C400008B5024801F08AF808BD00BF9C000020DA
:101C500082B0002100910B4B5A6C42F480425A64CE
:101C60005A6C02F480420092009A01911A6C42F080
:101C700080521A641B6C03F080530193019B02B0E5
:101C8000704700BF0038024010B58AB000230593AA
:101C9000069307930893099303682B4A934204D051
:101CA0002A4A93422DD00AB010BD00240194284B3B
:101CB0005A6C42F010025A645A6C02F010020192FF
:101CC000019A02941A6B42F001021A631B6B03F033
:101CD00001030293029B4FF4C06305930223069312
:101CE000032308930723099305A91A4800F058FB1A
:101CF00022462146252000F0B1FC252000F0E6FC1C
:101D0000D1E700210391124B1A6C42F400321A649D
:101D10001A6C02F400320392039A04911A6B42F097
:101D200001021A631B6B03F001030493049B0C2351
:101D3000059302230693032308930723099305A918
:101D4000044800F02DFBAEE70010014000440040C5
:101D50000038024000000240002800F0E08170B529
:101D600082B00446036813F0010F3BD09F4B9B6881
:101D700003F00C03042B2CD09C4B9B6803F00C034A
:101D8000082B21D06368B3F5803F4FD0B3F5A02F67
:101D900052D0964B1A6822F480321A601A6822F4E4
:101DA00080221A606368002B50D000F0FDFC0546CD
:101DB0008E4B1B6813F4003F14D100F0F5FC401B60
:101DC0006428F5D90320B1E1884B5B6813F4800FD8
:101DD000D8D0864B1B6813F4003F03D06368002BF8
:101DE00000F09F81236813F0020F54D07F4B9B6853
:101DF00013F00C0F3ED07D4B9B6803F00C03082BB7
:101E000033D0E368002B68D0794B01221A6000F0D0
:101E1000CBFC0546754B1B6813F0020F54D100F044
:101E2000C3FC401B0228F5D903207FE16F4A1368E9
:101E300043F480331360B5E76C4B1A6842F4802298
:101E40001A601A6842F480321A60ABE700F0ACFC0A
:101E50000546664B1B6813F4003FC3D000F0A4FC9A
:101E6000401B6428F5D9032060E1604B5B6813F4E4
:101E7000800FC6D15D4B1B6813F0020F03D0E368DF
:101E8000012B40F05081594A136823F0F80321696F
:101E900043EAC1031360236813F0080F42D063695B
:101EA0006BB3534B0122C3F8802E00F07DFC054636
:101EB0004E4B5B6F13F0020F34D100F075FC401BEA
:101EC0000228F5D9032031E1484A136823F0F803CA
:101ED000216943EAC1031360DDE7454B00221A6024
:101EE00000F062FC0546414B1B6813F0020FD2D094
:101EF00000F05AFC401B0228F5D9032016E13C4BA8
:101F00000022C3F8802E00F04FFC0546374B5B6F74
:101F100013F0020F06D000F047FC401B0228F5D951
:101F2000032003E1236813F0040F77D02F4B1B6CC1
:101F300013F0805F33D1002301932C4B1A6C42F0D5
:101F400080521A641B6C03F080530193019B01259E
:101F5000284B1B6813F4807F23D0A368012B34D057
:101F6000052B38D0214B1A6F22F001021A671A6F25
:101F700022F004021A67A368002B3DD000F014FC85
:101F800006461A4B1B6F13F0020F46D100F00CFCF3
:101F9000801B41F288339842F3D90320C6E0002524
:101FA000D6E7144A136843F48073136000F0FCFB17
:101FB0000646104B1B6813F4807FCED100F0F4FB73
:101FC000801B0228F5D90320B0E0084A136F43F0C4
:101FD00001031367CFE7054B1A6F42F004021A673B
:101FE0001A6F42F001021A67C5E700BF00380240CD
:101FF000000047420070004000F0D6FB0646524BFE
:102000001B6F13F0020F08D000F0CEFB801B41F2D3
:1020100088339842F3D9032088E0EDB9A369002BF7
:1020200000F08380484A926802F00C02082A51D0DE
:10203000022B17D0454B00221A6600F0B5FB044670
:10204000414B1B6813F0007F42D000F0ADFB001B3A
:102050000228F5D9032069E03B4A136C23F0805332
:102060001364DBE7394B00221A6600F09DFB05463E
:10207000354B1B6813F0007F06D000F095FB401B2A
:102080000228F5D9032051E0E369226A1343626A0A
:1020900043EA8213A26A5208013A43EA0243E26A1F
:1020A00043EA0263284A5360284B01221A6600F073
:1020B0007BFB0446244B1B6813F0007F06D100F025
:1020C00073FB001B0228F5D903202FE000202DE030
:1020D00000202BE0012B2BD01B4B5B6803F480010D
:1020E000E269914226D103F03F02216A8A4223D15C
:1020F000616A47F6C0721A40B2EB811F1ED103F429
:102100004031A26A5208013AB1EB024F18D103F0F4
:102110007063E26AB3EB026F14D1002006E0012085
:102120007047012002E0012000E0002002B070BDF5
:102130000120FBE70120F9E70120F7E70120F5E79F
:102140000120F3E70120F1E7003802400000474298
:1021500008B5254B9B6803F00C03042B3FD0082BDC
:102160003FD1214B5A6802F03F025B6813F4800FA5
:1021700012D01D4B5968C1F388111C480023A1FBE4
:102180000001FFF7B5FA184B5B68C3F30143013355
:102190005B00B0FBF3F025E0134B5968C1F3881CDA
:1021A0004FEA4C11B1EB0C006EEB0E0E4FEA8E13A2
:1021B00043EA90638101091A63EB0E03DB0043EAF3
:1021C0005173C90011EB0C0C43F100039902002379
:1021D0004FEA8C2041EA9C51FFF78AFAD3E7034883
:1021E00000E0034808BD00BF0038024040787D0190
:1021F0000024F400002800F09B8070B50D460446D2
:102200004F4B1B6803F007038B4208D2CBB24C4AFA
:102210001370136803F007038B4240F08B80236830
:1022200013F0020F17D013F0040F04D0454A93683F
:1022300043F4E0539360236813F0080F04D0414A3D
:10224000936843F4604393603E4A936823F0F0033D
:10225000A1680B439360236813F0010F32D06368C9
:10226000012B21D09A1E012A25D9364A126812F074
:10227000020F61D033498A6822F0030213438B6056
:1022800000F092FA06462F4B9B6803F00C0362683D
:10229000B3EB820F16D000F087FA801B41F288332F
:1022A0009842F0D9032042E0264A126812F4003F17
:1022B000E0D101203BE0234A126812F0007FD9D11F
:1022C000012034E01E4B1B6803F00703AB4207D923
:1022D000EAB21B4B1A701B6803F00703AB422DD107
:1022E000236813F0040F06D0164A936823F4E053D2
:1022F000E1680B439360236813F0080F07D0114A7D
:10230000936823F46043216943EAC1039360FFF7B4
:102310001FFF0C4B9B68C3F303130B4AD35CD840DD
:102320000A4B18600A4B186800F0F2F9002070BDE3
:10233000012070470120FAE70120F8E70120F6E7C5
:10234000003C024000380240DC3000086C000020F5
:1023500068000020014B1868704700BF6C00002027
:1023600008B5FFF7F7FF044B9B68C3F38223034ACA
:10237000D35CD84008BD00BF00380240EC300008F4
:1023800008B5FFF7E7FF044B9B68C3F34233034AEA
:10239000D35CD84008BD00BF00380240EC300008D4
:1023A00000230F2B00F2D28070B582B060E0856808
:1023B0005E000324B44025EA0405CC68B4402C43F5
:1023C0008460456825EA02054C68C4F300129A400F
:1023D0002A4342605AE0DC08083450F8246003F0D5
:1023E000070295000F22AA4026EA020E0A69AA40B7
:1023F00042EA0E0240F824205CE0042200E00022C1
:1024000002FA0EF22A430234514D45F82420514A73
:1024100094686FEA0C0224EA0C054E6816F4801FDB
:1024200001D04CEA04054B4CA560E46802EA0405BF
:102430004E6816F4001F01D04CEA0405454CE560D7
:10244000646802EA04054E6816F4003F01D04CEAC5
:102450000405404C6560246822404D6815F4803FB7
:1024600001D04CEA04023B4C226001330F2B6BD8A5
:1024700001229A400C6804EA020C32EA0404F4D106
:102480004C6804F00304013C012C90D94A6802F026
:102490000302032A09D0C4685D000322AA4024EA8B
:1024A00002048A68AA402243C2604A6802F003021A
:1024B000022A90D004684FEA430E032202FA0EF279
:1024C00024EA02044A6802F0030202FA0EF22243EE
:1024D00002604A6812F4403FC7D0002201921E4AAF
:1024E000546C44F480445464526C02F4804201926F
:1024F000019A9C08A51C164A52F8255003F00302C5
:102500004FEA820E0F2202FA0EF225EA0205134A62
:1025100090423FF474AF02F5806290420ED002F513
:10252000806290420CD002F5806290420AD002F59F
:10253000806290423FF461AF072261E701225FE7CA
:1025400002225DE703225BE702B070BD704700BF67
:1025500000380140003C01400038024000000240C9
:102560000AB181617047090481617047436901EADA
:10257000030221EA030141EA02418161704770B51B
:102580000446866D00F010F994F83530DBB2022B6A
:1025900006D080236365002384F83430012070BDA9
:1025A00005462268136823F01603136022685369F6
:1025B00023F080035361236CE3B12268136823F096
:1025C000080313602268136823F001031360236873
:1025D0001B6813F0010F11D000F0E6F8431B052B28
:1025E000F5D920236365032084F83500002384F89F
:1025F0003430D4E7A36C002BDFD1E3E7E26D3F2357
:102600009340B360012384F83530002084F834000F
:10261000C5E790F83530DBB2022B03D08023436549
:1026200001207047052380F835300268136823F0D5
:102630000103136000207047074AD36823F4E06366
:102640001B041B0C000200F4E060034343F0BF6373
:1026500043F40033D360704700ED00E000B5194B40
:10266000DB68C3F30223C3F1070CBCF1040F28BFDE
:102670004FF0040C03F1040EBEF1060F18D9033B12
:102680004FF0FF3E0EFA0CFC21EA0C0199400EFAC5
:1026900003F322EA0303194300280BDB0901C9B243
:1026A00000F1604000F5614080F800135DF804FB24
:1026B0000023E5E700F00F000901C9B2024B1954ED
:1026C000F4E700BF00ED00E014ED00E0002807DBB8
:1026D00000F01F02400901239340024A42F82030D3
:1026E000704700BF00E100E00138B0F1807F0BD2FD
:1026F0004FF0E0235861054AF02182F823100020B2
:10270000986107221A6170470120704700ED00E0D0
:1027100010B504460E4B18784FF47A73B3FBF0F300
:102720000C4A1068B0FBF3F0FFF7DEFF68B90F2C1E
:1027300001D901200AE0002221464FF0FF30FFF7C7
:102740008DFF054B1C60002000E0012010BD00BF84
:10275000640000206C0000206800002008B50B4BCE
:102760001A6842F400721A601A6842F480621A60B1
:102770001A6842F480721A600320FFF75DFF0F2091
:10278000FFF7C6FFFFF764FA002008BD003C0240D7
:10279000034A1168034B1B780B441360704700BF5A
:1027A0007C01002064000020014B1868704700BFC6
:1027B0007C01002038B50446FFF7F6FF0546B4F16A
:1027C000FF3F02D0044B1B781C44FFF7EDFF401B7A
:1027D000A042FAD338BD00BF64000020034AD2F8FB
:1027E000883043F47003C2F88830704700ED00E091
:1027F000026802F10C0353E8003F23F490730C329B
:1028000042E800310029F3D1026802F1140353E8D1
:10281000003F23F00103143242E800310029F3D1D4
:10282000036B012B05D0202380F842300023036383
:102830007047026802F10C0353E8003F23F01003D5
:102840000C3242E800310029F3D1ECE790F8413036
:10285000DBB2212B01D0022070478368B3F5805F83
:1028600017D0036A5A1C02621A7803685A60C38C34
:102870009BB2013B9BB2C3844BB90268D36823F07F
:102880008003D3600268D36843F04003D360002024
:1028900070470369002BE4D1036A1B880268C3F305
:1028A00008035360036A02330362E0E738B5044665
:1028B0000268136923F44053C1680B4313618368B2
:1028C0000269134342691343C2691A430168CB6822
:1028D00023F4164323F00C031343CB6002685369BF
:1028E00023F4407381690B4353610368314A934277
:1028F00006D002F58062934202D0FFF731FD01E07D
:10290000FFF73EFDE369B3F5004F29D0002103181E
:1029100049411B1841F10001C90041EA5371DB0034
:10292000181863684FEA83024FEA937341F100017C
:10293000FEF7DEFE204DA5FB00325109642303FBA8
:1029400011031B013233A5FB03235B0903F0F002E3
:1029500002EB011203F00F03216813448B6038BDB2
:102960000023021843EB0301121841F10001C900D2
:1029700041EA5271D200101841F1000162689218C8
:102980005B41FEF7B5FE0C4DA5FB003251096423F7
:1029900003FB1103DB003233A5FB03235B095A0061
:1029A00002F4F87202EB011203F0070321681344EA
:1029B0008B60D4E7001001401F85EB512DE9F043F7
:1029C00083B005460E4617469946DDF828802C68E8
:1029D000246836EA04030CBF4FF0010C4FF0000CE2
:1029E000BC4528D1B8F1FF3FF1D0FFF7DDFEA0EBE9
:1029F0000900404523D8B8F1000F22D02B68DA68CF
:102A000012F0040FE3D0802EE1D0402EDFD01A6800
:102A100012F0080FDBD0002401941A6801925B6861
:102A20000193019B2846FFF7E3FE08236B6485F8BA
:102A30004040012000E0002003B0BDE8F083032007
:102A4000FAE70320F8E760B310B5044690F8413088
:102A500013B3242384F841302268D36823F400534D
:102A6000D3602046FFF722FF2268136923F49043C6
:102A700013612268536923F02A0353612268D368E3
:102A800043F40053D36000206064202384F8413075
:102A900084F84230606310BD80F84030FFF7F4F8EE
:102AA000D7E7012070472DE9F04182B01E4690F82B
:102AB0004130DBB2202B56D104460D46904600290A
:102AC00055D00AB901204FE000234364212380F848
:102AD0004130FFF769FE0746A4F82480A4F8268059
:102AE000A368B3F5805F02D04FF0000814E02369BB
:102AF0002BB34FF000080FE0202384F8413003206F
:102B000032E038F8023B2268C3F308035360E28CDA
:102B100092B2013A92B2E284E38C9BB293B10096F6
:102B20003B46002280212046FFF748FF0028E3D1E2
:102B3000002DE6D015F8012B23685A60E7E7A84678
:102B40000025E9E700963B46002240212046FFF79A
:102B500035FF18B9202384F8413005E0202384F89C
:102B60004130032000E0022002B0BDE8F0810120E6
:102B7000FAE72DE9F04182B01E4690F84230DBB210
:102B8000202B59D104460D469046002958D00AB949
:102B9000012052E000234364222280F84220036394
:102BA000FFF702FE0746A4F82C80A4F82E80A36845
:102BB000B3F5805F02D04FF000081CE0236913B129
:102BC0004FF0000817E0A846002514E0202384F801
:102BD0004230032031E023685B68C3F3080328F820
:102BE000023B03E023685B682B700135E28D92B2F3
:102BF000013A92B2E285E38D9BB2C3B100963B46A7
:102C0000002220212046FFF7D9FE0028DED1002D2A
:102C1000E1D0A368B3F5805FE4D013B92369002B3A
:102C2000E0D023685B6803F07F032B70DDE720238F
:102C300084F84230002000E0022002B0BDE8F081BC
:102C40000120FAE7704708B50168CA6822F040021F
:102C5000CA60202280F84120FFF7F4FF002008BD61
:102C6000704708B5806B0023C385C384FFF7F8FF66
:102C700008BD704790F84230DBB2222B69D18368DF
:102C8000B3F5805F4FD0826AB3F5805F04D0002B2C
:102C900056D10369002B53D103685B681370836AB4
:102CA00001338362C38D9BB2013B9BB2C385002B72
:102CB00051D100B583B00268D36823F02003D360FC
:102CC0000268D36823F48073D3600268536923F0E9
:102CD00001035361202380F8423000234363036BD8
:102CE000012B33D100230363026802F10C0353E884
:102CF000003F23F010030C3242E800310029F3D1E9
:102D000003681A6812F0100F06D0002201921A68A8
:102D100001925B680193019B818DFFF7AAFF002060
:102D200003B05DF804FB0269002AACD1826A036833
:102D30005B68C3F308031380836A02338362B1E7DD
:102D400003685B6803F07F031370A8E7FEF77CFE5F
:102D5000E5E70220704700207047000030B583B0DF
:102D6000044602681368D068516913F00F0505D155
:102D700013F0200F02D010F0200F19D12DB111F057
:102D8000010119D110F4907F16D1216B01297DD05A
:102D900013F0800F03D010F0800F40F0198113F072
:102DA000400F03D010F0400F40F0168103B030BD4B
:102DB0002046FFF75FFFF9E713F0010F06D010F48C
:102DC000807F03D0626C42F00102626413F0040F52
:102DD00004D019B1626C42F00202626413F0020F77
:102DE00004D019B1626C42F00402626413F0080F5F
:102DF00007D010F0200F00D119B1626C42F0080228
:102E00006264626C002AD1D013F0200F02D010F05F
:102E1000200F29D123685B6903F04003626C12F034
:102E2000080F00D163B32046FFF7E2FC23685B691B
:102E300013F0400F20D0226802F1140353E8003F42
:102E400023F04003143242E800310029F3D1E36B50
:102E500073B1634A1A65E06BFFF7DBFB0028A5D06E
:102E6000E06B036D9847A1E72046FFF703FFD1E72A
:102E70002046FFF7F5FE99E72046FFF7F1FE95E7BC
:102E80002046FFF7EDFE002363648FE713F0100F79
:102E90003FF47EAF10F0100F3FF47AAF00230193A0
:102EA0001368019353680193019B536913F0400F1A
:102EB00052D0E26B13685B689BB2002B3FF476AF95
:102EC000A18D99427FF672AFE385D369B3F5807F18
:102ED00037D0226802F10C0353E8003F23F48073DB
:102EE0000C3242E800310029F3D1226802F11403C8
:102EF00053E8003F23F00103143242E80031002977
:102F0000F3D1226802F1140353E8003F23F0400399
:102F1000143242E800310029F3D1202384F84230F2
:102F200000232363226802F10C0353E8003F23F0DF
:102F300010030C3242E800310029F3D1E06BFFF7B7
:102F40001EFB02236363A18DE38D9BB2C91A89B274
:102F50002046FFF78EFE29E7A18DE38D9BB2C91AAB
:102F600089B2E38D9BB2002B3FF420AF00293FF4E0
:102F70001DAF226802F10C0353E8003F23F4907365
:102F80000C3242E800300028F3D1226802F1140329
:102F900053E8003F23F00103143242E800300028D8
:102FA000F3D1202384F8423000232363226802F106
:102FB0000C0353E8003F23F010030C3242E80030CA
:102FC0000028F3D1022363632046FFF752FEEDE6AB
:102FD0002046FFF73BFCE9E62046FFF734FEE5E636
:102FE000632C000881628285C2850023436422230A
:102FF00080F84230036923B10268D36843F48073D8
:10300000D3600268536943F0010353610268D368D7
:1030100043F02003D3600020704708B590F8423099
:10302000DBB2202B08D149B10AB9012008BD002329
:103030000363FFF7D7FFF9E70220F7E70120F5E781
:10304000DFF834D0FFF7CAFB0C480D490D4A0023C6
:1030500002E0D458C4500433C4188C42F9D30A4A4D
:103060000A4C002301E013600432A242FBD3FDF7B7
:10307000EBF8FEF771FD7047000002200000002011
:103080007000002040310008700000208001002006
:10309000FEE70000F8B500BFF8BC08BC9E467047CC
:0C30A000F8B500BFF8BC08BC9E467047A5
:1030AC00415420683A202564000000005B2B5D2011
:1030BC0041542068656C6C6F2E0000004F4B000073
:1030CC00415445300D0A000041540D0A0000000027
:1030DC0000000000000000000102030406070809BC
:1030EC000000000001020304232D302B20000000FF
:1030FC00686C4C00656667454647000030313233DA
:10310C0034353637383941424344454600000000D7
:10311C003031323334353637383961626364656641
:04312C00000000009F
:08313000F0E5FF7F0100000043
:043138002902000860
:04313C000102000884
:10314000040000200000000000000000000000005B
:10315000000000000000000000000000000000006F
:10316000000000000000000000000000000000005F
:10317000000000000000000000000000000000004F
:10318000000000000000000000000000000000003F
:10319000000000000000000000000000000000002F
:1031A0000000000001000000100000000024F400F6
:04000005080030417E
:00000001FF
