:020000040800F2
:100000000000022005230008C90E0008CB0E0008DE
:10001000CD0E0008CF0E0008D10E00080000000031
:10002000000000000000000000000000D30E0008E7
:10003000D50E000800000000D70E0008D90E0008F9
:1000400055230008552300085523000855230008B0
:1000500055230008552300085523000855230008A0
:100060005523000855230008552300085523000890
:100070005523000855230008552300085523000880
:1000800055230008552300085523000800000000F0
:1000900000000000000000000000000055230008E0
:1000A0005523000855230008552300085523000850
:1000B0005523000855230008552300085523000840
:1000C0005523000855230008552300085523000830
:1000D00055230008E10E0008552300080000000029
:1000E0005523000855230008552300080000000090
:1000F0000000000000000000000000005523000880
:10010000000000005523000855230008552300086F
:1001100000000000000000000000000000000000DF
:1001200055230008552300085523000855230008CF
:10013000552300080000000000000000000000003F
:10014000000000000000000000000000552300082F
:10015000552300085523000855230008552300089F
:10016000552300085523000800000000000000008F
:10017000000000000000000000000000000000007F
:1001800000000000552300080000000000000000EF
:08019000552300085523000867
:1001C0000348044B834202D0034B03B118477047E6
:1001D0000C0000200C000020000000000548064B29
:1001E0001B1AD90F01EBA301491002D0034B03B135
:1001F000184770470C0000200C0000200000000091
:1002000010B5064C237843B9FFF7DAFF044B13B15E
:100210000448AFF300800123237010BD0C000020C0
:10022000000000005823000808B5044B1BB1044926
:100230000448AFF30080BDE80840CFE700000000AD
:10024000100000205823000870B50D4E0D4D761B90
:10025000B61006D0002455F8043B01349847A64256
:10026000F9D1094E094D761B02F076F8B61006D08A
:10027000002455F8043B01349847A642F9D170BDDB
:10028000D0230008D0230008D4230008D02300087E
:10029000830730B548D0541E002A3FD0CAB2034667
:1002A00001E0013C3AD303F8012B9D07F9D1032C5F
:1002B0002DD9CDB245EA05250F2C45EA054536D99D
:1002C000A4F1100222F00F0C03F1200EE6444FEAD5
:1002D000121C03F1100242E9045542E902551032A2
:1002E0007245F8D10CF1010214F00C0F03EB02126D
:1002F00004F00F0C13D0ACF1040323F00303043318
:10030000134442F8045B9342FBD10CF003042CB17C
:10031000CAB21C4403F8012B9C42FBD130BD644699
:100320001346002CF4D1F9E703461446BFE71A46FA
:10033000A446E0E72DE9F04F012BADF21C4D1D4620
:1003400081460F46904640F245810123002419461C
:100350004FF0FF309C4606E0A3EB000C1C46012149
:1003600063189D4210D908EB000218F80360525C34
:100370009642F1D300F082804FF0010C2046614696
:10038000644463189D42EED8CDF808C04FF0010CCC
:10039000002461464FF0FF36634606E0A3EB060CEF
:1003A0001C46012163189D420FD908EB010218F881
:1003B00003E0925D9645F1D866D04FF0010C2646D9
:1003C0006146644463189D42EFD8013600F1010B89
:1003D000B34502D8CDF808C0B34605AB0DF21442C0
:1003E00043F8045F9342FBD1002D00F0F8806C1EAF
:1003F00006AE08F1FF3208EB0400019612F8011F67
:10040000D3432B444344904246F82130F6D1029B1B
:100410005A4608EB0301404600F09AF9002840F0E4
:100420008280029B0BF1FF32EB1A82460646059250
:10043000039309EB060E019A1EF8043052F823309C
:1004400043B3BAF1000F04D0029A9342039A38BF23
:1004500013461E444FF0000A7B1BB342E9D209EB5E
:10046000070045F4006100F079FA07447B1BB342B2
:10047000DFD200200DF21C4DBDE8F08F8C4512BF7D
:100480000131644401216BE761450ABF6418013101
:10049000012187E7D3455B4638BF5346A34211D2BB
:1004A000591E9A1941444A4402E00133A34209D239
:1004B00012F8010B11F801CF8445F6D0CBF10102FF
:1004C0001644C6E7D345059B40F282800BEB06023B
:1004D0004A4408EB0B01CDF810B002E0534516D0AA
:1004E000034612F8010D11F801CD844503F1010B0B
:1004F00003F1FF30F2D05B46DDF810B00AF1010ADB
:100500009A450BD8029BDDF80CA01E44A4E7534685
:100510000AF1010A9A45DDF810B0F3D970460DF2E0
:100520001C4DBDE8F08FA5EB0B035B4538BF5B4668
:10053000013304930BF1FF330293CBF10103002647
:10054000039345F4006A09EB0601019A0B5D52F82A
:1005500023306BB11E447B1B9E42F4D909EB07008C
:10056000514600F0FBF907447B1B9E42EBD980E724
:10057000A34514D2029B0BEB060208EB030C4A4482
:100580005B4602E00133A34209D212F8010B1CF8CA
:1005900001EF8645F6D0039A16441E44DBE7BBF113
:1005A000000F10D00BEB0600484408EB0B0201E0F3
:1005B000434508D012F801ED10F801CDE645134689
:1005C000F6D0049BC6E708460DF21C4DBDE8F08F3F
:1005D0005B4693E7012302934FF0000BFDE606AB69
:1005E0004FF0FF34019312E72DE9F0410D460978F1
:1005F00090B00446002953D06A78002A00F0838026
:10060000AB78002B50D0E878002800F083802B795D
:10061000002B57D0284600F033F9064640F400710D
:10062000204600F09BF986425CD8FE2E00F28780BF
:10063000801B27184022711C6846FFF729FE7EB1F7
:100640006A1E5FFA86FC901912F8013F03F03F031F
:1006500040336B44A91A6144824203F8401CF3D131
:10066000013CA35D03F03F0340336B4413F8400C9F
:100670000444A74203D23AE04444A74237D314F8D3
:1006800006C00CF03F0C0CF140030DEB030C2046B0
:10069000324629461CF8408C00F05AF80028EBD16D
:1006A000204610B0BDE8F081007842EA014200E047
:1006B0000C4640EA0343611CA0B19A426078F7D12E
:1006C000013CEDE722786AB1296809BA01E0994254
:1006D0001ED042EA0323204614F8012F002AF6D147
:1006E000994215D00024204610B0BDE8F081BB5DD2
:1006F000B819002BF6D04FF4006100F02FF9074431
:10070000BC42ADD9EEE710B0BDE8F04100F052B800
:10071000C41EC5E7120442EA016242EA03232178BB
:10072000024600E02C4641EA0200651C0202002954
:10073000D8D0B3EB002F6178F4D1023CB0E701468A
:1007400033462A46204610B0BDE8F041F2E500BF2E
:10075000032A70B515D940EA010C1CF0030F0446BA
:100760000B4621D1194620460E680568B54204F1B2
:10077000040403F1040317D1043A032A204619465E
:10078000F0D8541EA2B100F1FF3C013901E0C318BA
:100790000CD01CF801EF11F8012F9645A4EB0C03C7
:1007A000F5D0AEEB020070BD541EECE7184670BDEC
:1007B000104670BD11F0FF01034644D0820732D1CC
:1007C00010B5046841EA012E4EEA0E4E8EEA04028C
:1007D000A2F1013323EA0203A4F1013222EA040266
:1007E000134313F0803F0FD150F8044F84EA0E0CEE
:1007F000A4F10133ACF1013223EA040322EA0C0232
:10080000134313F0803FEFD0037823B936E010F89C
:10081000013F002B32D09942F9D110BD8A4211D04C
:100820009A071846CCD0184613F8012B002AF5D1A8
:10083000104670479907184607D0184601330278CA
:10084000002AF7D170478207F7D10268A2F101337D
:1008500023EA020313F0803F08D150F8042FA2F1DD
:10086000013323EA020313F0803FF6D00378002B14
:10087000E8D010F8013F002BFBD17047184610BD9F
:1008800090F800F06DE9024520F007016FF0000CD0
:1008900010F0070491F820F040F049804FF0000478
:1008A0006FF00700D1E9002391F840F000F1080053
:1008B00082FA4CF2A4FA8CF283FA4CF3A2FA8CF38B
:1008C0004BBBD1E9022382FA4CF200F10800A4FAF2
:1008D0008CF283FA4CF3A2FA8CF3E3B9D1E9042346
:1008E00082FA4CF200F10800A4FA8CF283FA4CF37D
:1008F000A2FA8CF37BB9D1E9062301F1200182FA37
:100900004CF200F10800A4FA8CF283FA4CF3A2FA3C
:100910008CF3002BC6D0002A04BF04301A4612BA4A
:10092000B2FA82F2FDE8024500EBD2007047D1E94D
:10093000002304F00305C4F100004FEAC50514F0DC
:10094000040F91F840F00CFA05F562EA05021CBFAD
:1009500063EA050362464FF00004A9E771B103465C
:1009600000EB010C01E0634506D01A460133117813
:100970000029F8D1101A7047181A704708467047B6
:1009800053B94AB9002908BF00281CBF4FF0FF31F6
:100990004FF0FF3000F06AB9ADF1080C6DE904CEFC
:1009A00000F006F8DDF804E0DDE9022304B070474A
:1009B0002DE9F047089D0C46002B4ED194468C45FE
:1009C0008646B2FA82F262D94AB1C2F1200391405E
:1009D00020FA03F30CFA02FC194300FA02FE4FEA74
:1009E0001C471FFA8CF6B1FBF7F44FEA1E4307FBD6
:1009F000141143EA014304FB06F199420AD91CEBA6
:100A0000030304F1FF3080F01381994240F210811A
:100A1000023C6344591A1FFA8EF3B1FBF7F007FB4F
:100A2000101143EA014300FB06F69E420AD91CEB73
:100A3000030300F1FF3180F0FD809E4240F2FA8016
:100A4000634402389B1B40EA044000211DB1D3409F
:100A50000022C5E90032BDE8F0878B4205D90DB10F
:100A6000C5E9000100210846F5E7B3FA83F1002942
:100A700046D1A34202D39042C0F0F180861A64EBC3
:100A800003030120002DE6D0C5E90063E3E7002A57
:100A900040F09180A1EB0C044FEA1C481FFA8CF740
:100AA0000121B4FBF8F64FEA1E4308FB164443EA63
:100AB000044307FB06F0984208D91CEB030306F138
:100AC000FF3402D2984200F2CE8026461C1A1FFA4A
:100AD0008EF3B4FBF8F008FB104443EA044300FB38
:100AE00007F79F4208D91CEB030300F1FF3402D241
:100AF0009F4200F2B1802046DB1B40EA0640A5E79A
:100B0000C1F120068B4022FA06F71F4320FA06FCAB
:100B100004FA01F343EA0C03F44000FA01F8380C3C
:100B20004FEA1349B4FBF0FE1FFA87FC00FB1E449A
:100B300049EA04440EFB0CF9A14502FA01F20AD974
:100B40003C190EF1FF3A80F08580A14540F2828089
:100B5000AEF1020E3C44A4EB09041FFA83F9B4FB86
:100B6000F0F300FB134449EA044403FB0CFCA445E6
:100B700007D93C1903F1FF3068D2A44566D9023B7E
:100B80003C4443EA0E40A0FB0293A4EB0C049C42BD
:100B9000CE469C4652D34FD055B1B8EB0E0364EB12
:100BA0000C0404FA06F6CB40CC401E43C5E90064B1
:100BB0000021BDE8F087C2F1200320FA03F10CFA0E
:100BC00002FC24FA03F394400C434FEA1C4800FA59
:100BD00002FE1FFA8CF7B3FBF8F008FB1031230C70
:100BE00043EA014300FB07F1994208D91CEB0303D8
:100BF00000F1FF362CD299422AD9023863445B1A9D
:100C0000A4B2B3FBF8F108FB113344EA034401FB3F
:100C100007F3A34208D91CEB040401F1FF3613D2F9
:100C2000A34211D902396444E41A41EA004138E789
:100C30000446EFE6084605E7C845ADD2B9EB020E1B
:100C400063EB070C0138A7E73146EDE7034698E769
:100C50003046D4E7D6467EE7634402384CE7064682
:100C6000234608460EE7023E63442FE7704700BF65
:100C700030B587B000240194029403940494059441
:100C800000940E4B1A6B42F001021A631B6B03F0C7
:100C900001030093009B0A4D22462021284600F0C4
:100CA000B5FD20230193012302930394049401A929
:100CB000284600F0C7FC07B030BD00BF0038024036
:100CC0000000024008B50A22014901F008FB08BDF6
:100CD0002800002072B6FEE708B50A480A4B0360F8
:100CE0004FF4E133436000238360C36003610C224F
:100CF00042618361C36101F00AF800B908BDFFF7E2
:100D0000E9FF00BF780000200044004008B50A4811
:100D10000A4B03604FF4E133436000238360C360F8
:100D200003610C2242618361C36100F0F0FF00B9EE
:100D300008BDFFF7CFFF00BFC0000020001001403A
:100D400000B595B03022002108A8FFF7A1FA0023D2
:100D5000039304930593069307930193184A116C28
:100D600041F080511164126C02F080520192019A9C
:100D70000293144A116841F440411160126802F470
:100D800040420292029A0222089201220B92102201
:100D90000C920E9308A800F02FF968B90F23039363
:100DA0000021049105910691079103A800F074FBBE
:100DB00020B915B05DF804FBFFF78CFFFFF78AFF41
:100DC000003802400070004070B584B000F02CFE86
:100DD000FFF7B6FFFFF74CFFFFF77EFFFFF796FF29
:100DE00040F6B83000F04CFE1A4A01AB07CA03C304
:100DF0001A70194C0A23092201A9204600F0B7FFF6
:100E00002021164800F008FD154E142231462046D8
:100E100001F065FA134D64230B221349284600F0B4
:100E2000A6FF642350223146284600F0A0FF20464A
:100E300000F03AF830B9642307220C49284600F044
:100E400096FFFEE7642308220949064800F08FFF59
:100E5000F7E700BF90230008C00000200000024018
:100E60002800002078000020702300087C23000860
:100E70008423000838B504460A23042200F077FFD3
:100E8000074D0A2350222946204600F0D6FF054987
:100E90002846FFF7A9FB08B1002038BD0120FCE778
:100EA000280000209C23000838B505460449FFF7B8
:100EB000E1FF044603492846FFF7DCFF204438BD24
:100EC000A0230008A8230008FEE7FEE7FEE7FEE7F0
:100ED000FEE770477047704708B500F0BFFD08BDDA
:100EE00008B5024801F09EF808BD00BFC000002010
:100EF00082B0002100910B4B5A6C42F480425A643C
:100F00005A6C02F480420092009A01911A6C42F0ED
:100F100080521A641B6C03F080530193019B02B052
:100F2000704700BF0038024010B58AB00023059317
:100F3000069307930893099303682B4A934204D0BE
:100F40002A4A93422DD00AB010BD00240194284BA8
:100F50005A6C42F010025A645A6C02F0100201926C
:100F6000019A02941A6B42F001021A631B6B03F0A0
:100F700001030293029B4FF4C0630593022306937F
:100F8000032308930723099305A91A4800F05AFB85
:100F900022462146252000F0F9FC252000F006FD20
:100FA000D1E700210391124B1A6C42F400321A640B
:100FB0001A6C02F400320392039A04911A6B42F005
:100FC00001021A631B6B03F001030493049B0C23BF
:100FD000059302230693032308930723099305A986
:100FE000044800F02FFBAEE7001001400044004031
:100FF0000038024000000240002800F0E08170B597
:1010000082B00446036813F0010F3BD09F4B9B68EE
:1010100003F00C03042B2CD09C4B9B6803F00C03B7
:10102000082B21D06368B3F5803F4FD0B3F5A02FD4
:1010300052D0964B1A6822F480321A601A6822F451
:1010400080221A606368002B50D000F013FD054623
:101050008E4B1B6813F4003F14D100F00BFD401BB6
:101060006428F5D90320B1E1884B5B6813F4800F45
:10107000D8D0864B1B6813F4003F03D06368002B65
:1010800000F09F81236813F0020F54D07F4B9B68C0
:1010900013F00C0F3ED07D4B9B6803F00C03082B24
:1010A00033D0E368002B68D0794B01221A6000F03E
:1010B000E1FC0546754B1B6813F0020F54D100F09C
:1010C000D9FC401B0228F5D903207FE16F4A136841
:1010D00043F480331360B5E76C4B1A6842F4802206
:1010E0001A601A6842F480321A60ABE700F0C2FC62
:1010F0000546664B1B6813F4003FC3D000F0BAFCF2
:10110000401B6428F5D9032060E1604B5B6813F451
:10111000800FC6D15D4B1B6813F0020F03D0E3684C
:10112000012B40F05081594A136823F0F8032169DC
:1011300043EAC1031360236813F0080F42D06369C8
:101140006BB3534B0122C3F8802E00F093FC05468D
:101150004E4B5B6F13F0020F34D100F08BFC401B41
:101160000228F5D9032031E1484A136823F0F80337
:10117000216943EAC1031360DDE7454B00221A6091
:1011800000F078FC0546414B1B6813F0020FD2D0EB
:1011900000F070FC401B0228F5D9032016E13C4BFF
:1011A0000022C3F8802E00F065FC0546374B5B6FCC
:1011B00013F0020F06D000F05DFC401B0228F5D9A9
:1011C000032003E1236813F0040F77D02F4B1B6C2F
:1011D00013F0805F33D1002301932C4B1A6C42F043
:1011E00080521A641B6C03F080530193019B01250C
:1011F000284B1B6813F4807F23D0A368012B34D0C5
:10120000052B38D0214B1A6F22F001021A671A6F92
:1012100022F004021A67A368002B3DD000F02AFCDC
:1012200006461A4B1B6F13F0020F46D100F022FC4A
:10123000801B41F288339842F3D90320C6E0002591
:10124000D6E7144A136843F48073136000F012FC6D
:101250000646104B1B6813F4807FCED100F00AFCC9
:10126000801B0228F5D90320B0E0084A136F43F031
:1012700001031367CFE7054B1A6F42F004021A67A8
:101280001A6F42F001021A67C5E700BF003802403A
:10129000000047420070004000F0ECFB0646524B55
:1012A0001B6F13F0020F08D000F0E4FB801B41F22B
:1012B00088339842F3D9032088E0EDB9A369002B65
:1012C00000F08380484A926802F00C02082A51D04C
:1012D000022B17D0454B00221A6600F0CBFB0446C8
:1012E000414B1B6813F0007F42D000F0C3FB001B92
:1012F0000228F5D9032069E03B4A136C23F08053A0
:101300001364DBE7394B00221A6600F0B3FB054695
:10131000354B1B6813F0007F06D000F0ABFB401B81
:101320000228F5D9032051E0E369226A1343626A77
:1013300043EA8213A26A5208013A43EA0243E26A8C
:1013400043EA0263284A5360284B01221A6600F0E0
:1013500091FB0446244B1B6813F0007F06D100F07C
:1013600089FB001B0228F5D903202FE000202DE087
:1013700000202BE0012B2BD01B4B5B6803F480017A
:10138000E269914226D103F03F02216A8A4223D1C9
:10139000616A47F6C0721A40B2EB811F1ED103F496
:1013A0004031A26A5208013AB1EB024F18D103F062
:1013B0007063E26AB3EB026F14D1002006E00120F3
:1013C0007047012002E0012000E0002002B070BD63
:1013D0000120FBE70120F9E70120F7E70120F5E70D
:1013E0000120F3E70120F1E7003802400000474206
:1013F00008B5264B9B6803F00C03042B41D0082B47
:1014000041D1224B5A6802F03F025B6813F4800F0F
:1014100012D01E4B5968C1F388111D480023A1FB4F
:101420000001FFF7ADFA194B5B68C3F301430133C9
:101430005B00B0FBF3F027E0144B5868C0F3881052
:101440004FEA401CBCEB000C6EEB0E0E4FEA8E1305
:1014500043EA9C634FEA8C11B1EB0C0163EB0E0382
:10146000DB0043EA5173C90011EB000C43F10003A8
:10147000990200234FEA8C2041EA9C51FFF780FA41
:10148000D1E7034800E0034808BD00BF0038024030
:1014900040787D010024F400002800F09B8070B5A6
:1014A0000D4604464F4B1B6803F007038B4208D2DE
:1014B000CBB24C4A1370136803F007038B4240F021
:1014C0008B80236813F0020F17D013F0040F04D0A1
:1014D000454A936843F4E0539360236813F0080F80
:1014E00004D0414A936843F4604393603E4A936852
:1014F00023F0F003A1680B439360236813F0010FFE
:1015000032D06368012B21D09A1E012A25D9364A90
:10151000126812F0020F61D033498A6822F0030288
:1015200013438B6000F0A6FA06462F4B9B6803F02E
:101530000C036268B3EB820F16D000F09BFA801B9D
:1015400041F288339842F0D9032042E0264A1268DB
:1015500012F4003FE0D101203BE0234A126812F070
:10156000007FD9D1012034E01E4B1B6803F0070334
:10157000AB4207D9EAB21B4B1A701B6803F0070392
:10158000AB422DD1236813F0040F06D0164A93689E
:1015900023F4E053E1680B439360236813F0080FD2
:1015A00007D0114A936823F46043216943EAC103D9
:1015B0009360FFF71DFF0C4B9B68C3F303130B4AAB
:1015C000D35CD8400A4B18600A4B186800F006FA42
:1015D000002070BD012070470120FAE70120F8E7E4
:1015E0000120F6E7003C024000380240B823000822
:1015F0000800002004000020014B1868704700BF5D
:101600000800002008B5FFF7F7FF044B9B68C3F301
:101610008223034AD35CD84008BD00BF0038024093
:10162000B023000808B5FFF7E7FF044B9B68C3F33E
:101630004233034AD35CD84008BD00BF00380240A3
:10164000B023000800230F2B00F2D78070B582B0C2
:1016500065E085684FEA430E032404FA0EF425EA98
:101660000405CC6804FA0EF42C438460446824EA30
:1016700002044A68C2F300129A40224342605CE0CE
:10168000DC08083450F8242003F00705AD004FF0C3
:101690000F0E0EFA05FE22EA0E0E0A69AA4042EA71
:1016A0000E0240F824205CE0042200E0002202FA4E
:1016B0000EF22A430234514D45F82420504A9468D2
:1016C0006FEA0C0224EA0C054E6816F4801F01D064
:1016D0004CEA04054A4CA560E46802EA04054E6839
:1016E00016F4001F01D04CEA0405454CE56064681F
:1016F00002EA04054E6816F4003F01D04CEA0405E6
:101700003F4C6560246822404D6815F4803F01D04D
:101710004CEA04023A4C226001330F2B6BD80122B1
:101720009A400C6804EA020C32EA0404F4D14C68D2
:1017300004F00304013C012C8BD94A6802F0030237
:10174000032A09D0C4685D000322AA4024EA0204E7
:101750008A68AA402243C2604A6802F00302022A51
:101760008ED004684FEA430E032202FA0EF224EAF6
:1017700002044A6802F0030202FA0EF222430260F7
:101780004A6812F4403FC7D0002201921D4A546CAF
:1017900044F480445464526C02F480420192019AF1
:1017A0009C08A51C154A52F8255003F0030E4FEA79
:1017B0008E0E0F2202FA0EF225EA0205124A90421C
:1017C0003FF474AF02F5806290420ED002F5806261
:1017D00090420CD002F5806290420AD002F58062FD
:1017E00090423FF461AF072261E701225FE70222E6
:1017F0005DE703225BE702B070BD7047003801402F
:10180000003C014000380240000002400AB1816102
:101810007047090481617047436901EA030221EAC4
:10182000030141EA02418161704770B50446866D4B
:1018300000F020F994F83530DBB2022B06D080237B
:101840006365002384F83430012070BD05462268AA
:10185000136823F0160313602268536923F0800392
:101860005361236CE3B12268136823F0080313600B
:101870002268136823F00103136023681B6813F0C8
:10188000010F11D000F0F6F8431B052BF5D92023EA
:101890006365032084F83500002384F83430D4E7EE
:1018A000A36C002BDFD1E3E7E26D3F239340B360ED
:1018B000012384F83530002084F83400C5E790F81F
:1018C0003530DBB2022B03D0802343650120704703
:1018D000052380F835300268136823F00103136094
:1018E00000207047002807DB00F01F024009012399
:1018F0009340024A42F82030704700BF00E100E008
:10190000002808DB0901C9B200F1604000F5614020
:1019100080F80013704700F00F000901C9B2014BB5
:101920001954704714ED00E000B500F00700C0F155
:10193000070CBCF1040F28BF4FF0040C031D062B4D
:101940000FD9C31E4FF0FF3E0EFA0CF021EA000142
:1019500099400EFA03FE22EA0E0241EA02005DF807
:1019600004FB0023EEE70000074AD36823F4E0639A
:101970001B041B0C000200F4E060034343F0BF6350
:1019800043F40033D360704700ED00E010B5044627
:10199000054BD868C0F30220FFF7C6FF014620467A
:1019A000FFF7AEFF10BD00BF00ED00E008B5FFF788
:1019B00099FF08BD0138B0F1807F0BD24FF0E023D2
:1019C0005861054AF02182F823100020986107220F
:1019D0001A6170470120704700ED00E010B5044621
:1019E0000E4B1A784FF47A73B3FBF2F30C4A10687B
:1019F000B0FBF3F0FFF7DEFF68B90F2C01D901202F
:101A00000AE0002221464FF0FF30FFF7BFFF054BF1
:101A10001C60002000E0012010BD00BF000000207D
:101A2000080000200400002008B50B4B1A6842F49F
:101A300000721A601A6842F480621A601A6842F4EE
:101A400080721A600320FFF78FFF0F20FFF7C6FF99
:101A5000FFF74EFA002008BD003C0240034A11681F
:101A6000034B1B780B441360704700BF0801002034
:101A700000000020014B1868704700BF08010020DB
:101A800038B50446FFF7F6FF0546B4F1FF3F02D034
:101A9000044B1B781C44FFF7EDFF401BA042FAD318
:101AA00038BD00BF00000020034AD2F8883043F45C
:101AB0007003C2F88830704700ED00E0026802F160
:101AC0000C0353E8003F23F490730C3242E80031DA
:101AD0000029F3D1026802F1140353E8003F23F018
:101AE0000103143242E800310029F3D1036B012BCA
:101AF00005D0202380F8423000230363704702683A
:101B000002F10C0353E8003F23F010030C3242E8CB
:101B100000310029F3D1ECE790F84130DBB2212B02
:101B200001D0022070478368B3F5805F17D0036A45
:101B30005A1C02621A7803685A60C38C9BB2013B3C
:101B40009BB2C3844BB90268D36823F08003D3608F
:101B50000268D36843F04003D360002070470369F4
:101B6000002BE4D1036A1B880268C3F308035360A7
:101B7000036A02330362E0E710B5044602681369A2
:101B800023F44053C1680B431361836802691A430D
:101B900043691A43C3691A430168CB6823F41643A7
:101BA00023F00C031343CB600268536923F44073A2
:101BB00081690B4353610368314A934206D002F5B1
:101BC0008062934202D0FFF71DFD01E0FFF72AFD7E
:101BD000E369B3F5004F29D00021031849411B18D0
:101BE00041F10001C90041EA5371DB001818636834
:101BF0004FEA83024FEA937341F10001FEF7C0FE02
:101C0000204AA2FB00314909642303FB11031B0195
:101C10003233A2FB03235B0903F0F00202EB011253
:101C200003F00F03216813448B6010BD00230218DA
:101C300043EB0301121841F10001C90041EA52715E
:101C4000D200101841F10001626892185B41FEF762
:101C500097FE0C4AA2FB00314909642303FB1103E0
:101C6000DB003233A2FB03235B095A0002F4F87253
:101C700002EB011203F00703216813448B60D4E7E1
:101C8000001001401F85EB512DE9F04383B005465C
:101C90000E4617469946DDF828802B681C6836EA00
:101CA00004040CBF01240024BC4228D1B8F1FF3F3A
:101CB000F3D0FFF7DFFEA0EB0900404523D8B8F1D1
:101CC000000F22D02B68DA6812F0040FE5D0802EC6
:101CD000E3D0402EE1D01A6812F0080FDDD00024C6
:101CE00001941A6801925B680193019B2846FFF7F3
:101CF000E5FE08236B6485F84040012000E00020E9
:101D000003B0BDE8F0830320FAE70320F8E760B3EF
:101D100010B5044690F8413013B3242384F84130C1
:101D20002268D36823F40053D3602046FFF724FFD2
:101D30002268136923F4904313612268536923F0E6
:101D40002A0353612268D36843F40053D360002010
:101D50006064202384F8413084F84230606310BD11
:101D600080F84030FFF7E0F8D7E7012070472DE911
:101D7000F04182B01E4690F84130DBB2202B56D1A4
:101D800004460D469046002955D00AB901204FE07F
:101D900000234364212380F84130FFF76BFE0746A0
:101DA000A4F82480A4F82680A368B3F5805F02D04D
:101DB0004FF0000814E023692BB34FF000080FE048
:101DC000202384F84130032032E038F8023B2268B7
:101DD000C3F308035360E28C92B2013A92B2E284F8
:101DE000E38C9BB293B100963B46002280212046B3
:101DF000FFF74AFF0028E3D1002DE6D015F8012BAC
:101E000023685A60E7E7A8460025E9E700963B46C5
:101E1000002240212046FFF737FF18B9202384F81D
:101E2000413005E0202384F84130032000E0022007
:101E300002B0BDE8F0810120FAE72DE9F04182B05F
:101E40001E4690F84230DBB2202B59D104460D4695
:101E50009046002958D00AB9012052E0002343647B
:101E6000222280F842200363FFF704FE0746A4F80D
:101E70002C80A4F82E80A368B3F5805F02D04FF0C9
:101E800000081CE0236913B14FF0000817E0A846D2
:101E9000002514E0202384F84230032031E0236839
:101EA0005B68C3F3080328F8023B03E023685B6820
:101EB0002B700135E28D92B2013A92B2E285E38D48
:101EC0009BB2C3B100963B46002220212046FFF77B
:101ED000DBFE0028DED1002DE1D0A368B3F5805FE2
:101EE000E4D013B92369002BE0D023685B6803F0CA
:101EF0007F032B70DDE7202384F84230002000E0D0
:101F0000022002B0BDE8F0810120FAE7704708B571
:101F10000168CA6822F04002CA60202280F841208D
:101F2000FFF7F4FF002008BD704708B5806B002361
:101F3000C385C384FFF7F8FF08BD704790F84230AF
:101F4000DBB2222B69D18368B3F5805F4FD0826A00
:101F5000B3F5805F04D0002B56D10369002B53D119
:101F600003685B681370836A01338362C38D9BB21D
:101F7000013B9BB2C385002B51D100B583B00268F1
:101F8000D36823F02003D3600268D36823F48073FE
:101F9000D3600268536923F001035361202380F862
:101FA000423000234363036B012B33D100230363CF
:101FB000026802F10C0353E8003F23F010030C32D7
:101FC00042E800310029F3D103681A6812F0100FBB
:101FD00006D0002201921A6801925B680193019B6E
:101FE000818DFFF7AAFF002003B05DF804FB0269B2
:101FF000002AACD1826A03685B68C3F308031380CC
:10200000836A02338362B1E703685B6803F07F038E
:102010001370A8E7FEF756FEE5E7022070470020A0
:102020007047000010B582B0044602681368D0689B
:10203000516913F00F0F09D113F0200F0CD010F0DD
:10204000200F09D02046FFF779FF16E011F00101BB
:1020500015D110F4907F12D1216B012979D013F0A2
:10206000800F03D010F0800F40F0148113F0400F68
:1020700003D010F0400F40F0118102B010BD13F0FA
:10208000010F06D010F4807F03D0626C42F0010291
:10209000626413F0040F04D019B1626C42F00202C2
:1020A000626413F0020F04D019B1626C42F00402B2
:1020B000626413F0080F07D010F0200F00D119B19F
:1020C000626C42F008026264626C002AD5D013F0A0
:1020D000200F02D010F0200F29D123685B6903F094
:1020E0004003626C12F0080F00D163B32046FFF783
:1020F000E5FC23685B6913F0400F20D0226802F1F1
:10210000140353E8003F23F04003143242E8003147
:102110000029F3D1E36B73B1624A1A65E06BFFF7F4
:10212000CEFB0028A9D0E06B036D9847A5E72046B9
:10213000FFF704FFD1E72046FFF7F6FE9DE72046B4
:10214000FFF7F2FE99E72046FFF7EEFE00236364F7
:1021500093E713F0100F82D010F0100F3FF47FAF11
:10216000002301931368019353680193019B536902
:1021700013F0400F52D0E26B13685B689BB2002BE8
:102180003FF47BAFA18D99427FF677AFE385D369AA
:10219000B3F5807F37D0226802F10C0353E8003F8B
:1021A00023F480730C3242E800310029F3D1226815
:1021B00002F1140353E8003F23F00103143242E814
:1021C00000310029F3D1226802F1140353E8003FE3
:1021D00023F04003143242E800310029F3D12023D8
:1021E00084F8423000232363226802F10C0353E891
:1021F000003F23F010030C3242E800310029F3D1F4
:10220000E06BFFF712FB02236363A18DE38D9BB2AA
:10221000C91A89B22046FFF790FE2EE7A18DE38D03
:102220009BB2C91A89B2E38D9BB2002B3FF425AF54
:1022300000293FF422AF226802F10C0353E8003F6B
:1022400023F490730C3242E800300028F3D1226866
:1022500002F1140353E8003F23F00103143242E873
:1022600000300028F3D1202384F842300023236378
:10227000226802F10C0353E8003F23F010030C32F4
:1022800042E800300028F3D1022363632046FFF7C1
:1022900054FEF2E62046FFF73FFCEEE62046FFF74D
:1022A00036FEEAE62B1F000881628285C285002384
:1022B0004364222380F84230036923B10268D36863
:1022C00043F48073D3600268536943F001035361A0
:1022D0000268D36843F02003D3600020704708B53C
:1022E00090F84230DBB2202B08D149B10AB9012065
:1022F00008BD00230363FFF7D7FFF9E70220F7E7E4
:102300000120F5E7DFF834D0FFF7CEFB0C480D498C
:102310000D4A002302E0D458C4500433C4188C4240
:10232000F9D30A4A0A4C002301E013600432A242A6
:10233000FBD3FDF789FFFEF747FD70470000022041
:10234000000000200C000020D82300080C00002012
:102350000C010020FEE70000F8B500BFF8BC08BC87
:102360009E467047F8B500BFF8BC08BC9E46704753
:102370004D494E494D4554454F0A0D002D2D3E4FB8
:102380004B0A0D002D2D3E4552520A0D0000000053
:1023900041542B5253540D0A000000004F4B0000D3
:1023A000415445300D0A000041540D0A0000000060
:1023B0000000000001020304000000000000000013
:0823C0000102030406070809ED
:0823C800E8E5FF7F01000000C1
:0423D00029020008D6
:0423D40001020008FA
:0C23D80001000000100000000024F400D0
:0400000508002305C7
:00000001FF
