:100000000C9434000C9451000C9451000C94510049
:100010000C9451000C9451000C9451000C9451001C
:100020000C9451000C9451000C9451000C9451000C
:100030000C9451000C9451000C9451000C945100FC
:100040000C9451000C9451000C9451000C945100EC
:100050000C9451000C9451000C9451000C945100DC
:100060000C945D000C94510011241FBECFEFD8E01A
:10007000DEBFCDBF11E0A0E0B1E0ECE6F1E002C0F0
:1000800005900D92AA30B107D9F721E0AAE0B1E0BE
:1000900001C01D92AC30B207E1F70E94AD000C9494
:1000A000B4000C940000880F8093BA0085EC809314
:1000B000BC0008958093BB0008951F920F920FB665
:1000C0000F9211242F933F938F939F93EF93FF935E
:1000D0008091B900887F883A19F0883B79F032C066
:1000E000E0910201F091030180910A0190910B01CE
:1000F000E80FF91F80818093BB001AC0E0910201D4
:10010000F091030180910A0190910B01E80FF91F12
:1001100080818093BB0080910A0190910B01209116
:10012000000130910101215031092817390711F4DC
:1001300080EC06C0019690930B0180930A0180E841
:100140008093BC00FF91EF919F918F913F912F91F0
:100150000F900FBE0F901F901895F89481E090E0DB
:0C0160000E9453007894FFCFF894FFCF6A
:0A016C00020004016B6169786F0066
:00000001FF
