:100000000C9434000C9451000C9451000C94510049
:100010000C9451000C9451000C9451000C9451001C
:100020000C9451000C9451000C9451000C9451000C
:100030000C9451000C9451000C9451000C945100FC
:100040000C9451000C9451000C9451000C945100EC
:100050000C9451000C9451000C9451000C945100DC
:100060000C9451000C94510011241FBECFEFD8E026
:10007000DEBFCDBF11E0A0E0B1E0E0E7F1E002C0FB
:1000800005900D92A430B107D9F721E0A4E0B1E0CA
:1000900001C01D92A630B207E1F70E947B000C94CC
:1000A000B6000C9400003D983C9880E388B988E441
:1000B0008093B80084E48093BC008CE08093BA0005
:1000C000089584EC8093BC008091BC0087FFFCCF36
:1000D0008091B900887F883AD9F708958093BB0052
:1000E0008091B900887F803C11F484E801C084ECE1
:1000F0008093BC000895CF93DF9300D01F92CDB7BB
:10010000DEB78091000190910101A09102018983E5
:100110009A83AB83259A2D982FEF87EA91E6215099
:1001200080409040E1F700C000000E94530000E0D2
:1001300010E00E946100E1E0F0E0EC0FFD1FE00F35
:10014000F11F80810E946E00033011051CF40F5FC7
:100150001F4F02C000E010E02FEF81EE94E021502D
:1001600080409040E1F700C00000E3CFF894FFCF5B
:040170003241000018
:00000001FF
