:100000000C9434000C9451000C9451000C94510049
:100010000C9451000C9451000C9451000C9451001C
:100020000C9451000C9451000C9451000C9451000C
:100030000C9451000C9451000C9451000C945100FC
:100040000C9451000C9451000C94AA000C94510093
:100050000C9451000C9451000C9451000C945100DC
:100060000C9451000C94510011241FBECFEFD8E026
:10007000DEBFCDBF11E0A0E0B1E0EAE3FCE002C0EA
:1000800005900D92AC38B107D9F721E0ACE8B1E0AA
:1000900001C01D92A639B207E1F70E94AD020C948F
:1000A0001B060C940000CF93DF939B01AC01E2ECA4
:1000B000F0E080818F7B808380818F778083808157
:1000C0008F7E808380818F7D80838081877F808306
:1000D000808182608083808184608083C1ECD0E0F5
:1000E00088818B7F8883888188608883888180610C
:1000F0008883E0ECF0E080818260808360E874E8CF
:100100008EE190E00E94D602215031093093C50063
:100110002093C400888180688883DF91CF910895FF
:100120008093C6008091C00085FFFCCF0895809128
:10013000C00087FFFCCF8091C6000895CF93DF9366
:10014000EC018991882319F00E949000FACFDF9189
:10015000CF9108951F920F920FB60F9211242F93F3
:100160008F939F93EF93FF932091C60020938C0170
:1001700080918D0190918E01FC01E157FE4F20830B
:1001800001968530910529F090938E0180938D0121
:1001900004C010928E0110928D01FF91EF919F91FA
:1001A0008F912F910F900FBE0F901F901895CF93A6
:1001B000DF93EB010E949E0080E091E00E949E0090
:1001C00010929501109294018FE99FE00197F1F749
:1001D00000C00000BE018FE891E00E941703892B48
:1001E00019F081E090E002C083E090E090939501E7
:1001F000809394018091940190919501DF91CF912A
:100200000895CF93DF9363E071E086E091E00E9470
:10021000D700EC0163E071E08BE091E00E94D70031
:10022000019731F481E090E0219721F080E002C055
:1002300080E090E0DF91CF9108950F931F93CF93CB
:10024000DF93CDB7DEB7C654D1090FB6F894DEBF41
:100250000FBECDBFE22F022E000CFF0BFF932F939A
:10026000242F042E000C330B3F934F937F936F93F7
:100270009F938F938EE091E09F938F938E010F5FFA
:100280001F4F1F930F930E94310363E071E0C80179
:100290000E94D70021E030E00FB6F894DEBF0FBE19
:1002A000CDBF019711F020E030E0C901CA5BDF4FFC
:1002B0000FB6F894DEBF0FBECDBFDF91CF911F9177
:1002C0000F9108950F931F93CF93DF93CDB7DEB7B0
:1002D0002C970FB6F894DEBF0FBECDBF805D282FE0
:1002E000082E000C330B3F938F9387E291E09F938E
:1002F0008F938E010F5F1F4F1F930F930E94310347
:1003000063E071E0C8010E94D70021E030E00F9067
:100310000F900F900F900F900F90019711F020E029
:1003200030E0C9012C960FB6F894DEBF0FBECDBFEA
:10033000DF91CF911F910F9108950F931F93CF934A
:10034000DF93CDB7DEB72C970FB6F894DEBF0FBEA4
:10035000CDBF805D282F082E000C330B3F938F9369
:1003600084E391E09F938F938E010F5F1F4F1F9344
:100370000F930E94310363E071E0C8010E94D7002F
:1003800021E030E00F900F900F900F900F900F90A2
:10039000019711F020E030E0C9012C960FB6F894D7
:1003A000DEBF0FBECDBFDF91CF911F910F9108959A
:1003B000FF920F931F93CF93DF93CDB7DEB766976E
:1003C0000FB6F894DEBF0FBECDBF182F062FF72E45
:1003D00081E090E00E949D01FF920F9380E3810FE6
:1003E000282F082E000C330B3F938F9381E491E06C
:1003F0009F938F938E010F5F1F4F1F930F930E9448
:10040000310363E071E0C8010E94D70021E030E0D1
:100410000FB6F894DEBF0FBECDBF019711F020E0FC
:1004200030E0C90166960FB6F894DEBF0FBECDBFAF
:10043000DF91CF911F910F91FF900895EF92FF925E
:100440000F931F93CF93DF93CDB7DEB7EDB6FEB614
:10045000FB01908121E030E09D3019F02F5F3F4F8C
:10046000FBCF245F3F4F4DB75EB7421B530B0FB618
:10047000F8945EBF0FBE4DBF0DB71EB70F5F1F4F85
:100480007F936F93282F082E000C330B3F938F938D
:1004900084E591E09F938F931F930F930E94310304
:1004A00063E071E0C8010E94D70021E030E0EDB7C1
:1004B000FEB738960FB6F894FEBF0FBEEDBF01979A
:1004C00011F020E030E0C9010FB6F894FEBE0FBE77
:1004D000EDBEDF91CF911F910F91FF90EF900895A6
:1004E0000F931F93CF93DF93CDB7DEB72E970FB641
:1004F000F894DEBF0FBECDBF282F082E000C330BA3
:100500003F938F9385E691E09F938F938E010F5FCA
:100510001F4F1F930F930E94310363E071E0C801E6
:100520000E94D7000F900F900F900F900F900F9098
:100530008130910511F082E090E02E960FB6F8948C
:10054000DEBF0FBECDBFDF91CF911F910F910895F8
:10055000259A2D98249A2C98089560E072EC81E0F9
:1005600090E00E94530078940E94A8022FEF81EE41
:1005700094E0215080409040E1F700C000000E94CC
:100580000101EC0182E090E00E94620124E341E37A
:1005900064E771E08DE791E00E941D01219719F455
:1005A0002C9A2D9802C02D9A2C98FFCF052E97FBE0
:1005B0001EF400940E94ED0257FD07D00E94F50240
:1005C00007FC03D04EF40C94ED0250954095309505
:1005D00021953F4F4F4F5F4F0895909580957095AF
:1005E00061957F4F8F4F9F4F0895A1E21A2EAA1B4E
:1005F000BB1BFD010DC0AA1FBB1FEE1FFF1FA217D3
:10060000B307E407F50720F0A21BB30BE40BF50BCF
:10061000661F771F881F991F1A9469F76095709558
:10062000809590959B01AC01BD01CF010895FB0120
:1006300051915523A9F0BF01DC014D91451741119E
:10064000E1F759F4CD010190002049F04D9140159A
:100650004111C9F3FB014111EFCF81E090E0019717
:100660000895AEE0B0E0E7E3F3E00C94F2050D8905
:100670001E8986E08C831A8309838FEF9FE79E8310
:100680008D83AE01475E5F4F6F89788DCE010196F5
:100690000E945303EF81F885E00FF11F10822E9620
:1006A000E4E00C940E06ABE0B0E0E9E5F3E00C9476
:1006B000E4056C017B018A01FC01178216828381AB
:1006C00081FFCCC1CE0101963C01F6019381F70177
:1006D00093FD859193FF81917F01882309F4BAC12D
:1006E000853239F493FD859193FF81917F018532A5
:1006F00029F4B60190E00E944A05E7CF912C212C05
:10070000312CFFE1F315D8F08B3279F038F48032D8
:1007100079F08332A1F4232D20611DC08D3261F068
:10072000803369F4232D216016C0832D8260382E1A
:10073000E32DE4603E2E2AC0F32DF8601DC037FC87
:100740002DC020ED280F2A3040F08E32B9F436FC4F
:1007500081C1232D2064322E19C036FE06C08AE0E6
:10076000989E200D1124922E11C0EAE02E9E200D9D
:100770001124222EF32DF0623F2E08C08C3621F476
:10078000832D8068382E02C0883641F4F70193FD2E
:10079000859193FF81917F018111B3CF982F9F7D28
:1007A0009554933028F40C5F1F4F9FE399830DC03D
:1007B000833631F0833771F0833509F059C021C099
:1007C000F801808189830E5F1F4F88248394912CC8
:1007D000530113C02801F2E04F0E511CF801A08014
:1007E000B18036FE03C0692D70E002C06FEF7FEF6D
:1007F000C5010E943F054C018201F32DFF773F2E7A
:1008000016C0280122E0420E511CF801A080B180E0
:1008100036FE03C0692D70E002C06FEF7FEFC501A7
:100820000E9434054C01F32DF0683F2E820133FC09
:100830001BC0822D90E088169906B0F4B60180E2C4
:1008400090E00E944A052A94F4CFF50137FC859187
:1008500037FE81915F01B60190E00E944A052110A8
:100860002A9421E0821A91088114910471F7E8C05A
:10087000843611F0893641F5F80137FE07C06081F2
:100880007181828193810C5F1F4F08C060817181EB
:10089000072E000C880B990B0E5F1F4FF32DFF7670
:1008A0003F2E97FF09C090958095709561957F4F79
:1008B0008F4F9F4FF0683F2E2AE030E0A3010E9447
:1008C0008605882E861845C0853731F4232D2F7E66
:1008D000B22E2AE030E025C0932D997FB92E8F36B5
:1008E000C1F018F4883579F0B5C0803719F0883731
:1008F00021F0B0C0E92FE061BE2EB4FE0DC0FB2D8B
:10090000F460BF2E09C034FE0AC0292F2660B22E23
:1009100006C028E030E005C020E130E002C020E160
:1009200032E0F801B7FE07C0608171818281938156
:100930000C5F1F4F06C06081718180E090E00E5F08
:100940001F4FA3010E948605882E8618FB2DFF7776
:100950003F2E36FE0DC0232D2E7FA22E891458F473
:1009600034FE0BC032FC09C0832D8E7EA82E05C03C
:10097000B82CA32C03C0B82C01C0B92CA4FE0FC006
:10098000FE01E80DF11D8081803321F49A2D997EBE
:10099000A92E09C0A2FE06C0B394B39404C08A2D48
:1009A000867809F0B394A3FC11C0A0FE06C0B2146F
:1009B00088F4280C922C9B180EC0B21460F4B60177
:1009C00080E290E00E944A05B394F7CFB21418F485
:1009D0002B1802C0982C212CA4FE10C0B60180E375
:1009E00090E00E944A05A2FE17C0A1FC03C088E760
:1009F00090E002C088E590E0B6010CC08A2D8678B0
:100A000059F0A1FE02C08BE201C080E2A7FC8DE29A
:100A1000B60190E00E944A05891438F4B60180E3DB
:100A200090E00E944A059A94F7CF8A94F301E80D6A
:100A3000F11D8081B60190E00E944A058110F5CF3A
:100A4000222009F442CEB60180E290E00E944A05DD
:100A50002A94F6CFF6018681978102C08FEF9FEF2F
:100A60002B96E2E10C940006FC0105906150704069
:100A70000110D8F7809590958E0F9F1F0895FC0167
:100A80006150704001900110D8F7809590958E0FBD
:100A90009F1F08950F931F93CF93DF93FB01238133
:100AA00021FD03C08FEF9FEF2CC022FF16C04681AF
:100AB0005781248135814217530744F4A081B181C5
:100AC0009D012F5F3F4F318320838C932681378197
:100AD0002F5F3F4F3783268314C08B01EC01FB014E
:100AE0000084F185E02D0995892BE1F6D801169651
:100AF0008D919C911797019617969C938E931697BC
:100B0000CE01DF91CF911F910F910895FA01AA278D
:100B1000283051F1203181F1E8946F936E7F6E5F40
:100B20007F4F8F4F9F4FAF4FB1E03ED0B4E03CD0EE
:100B3000670F781F891F9A1FA11D680F791F8A1FD1
:100B4000911DA11D6A0F711D811D911DA11D20D038
:100B500009F468943F912AE0269F11243019305DF2
:100B60003193DEF6CF010895462F4770405D4193E3
:100B7000B3E00FD0C9F7F6CF462F4F70405D4A3330
:100B800018F0495D31FD4052419302D0A9F7EACFF8
:100B9000B4E0A6959795879577956795BA95C9F727
:100BA00000976105710508959B01AC010A2E06941A
:100BB0005795479537952795BA95C9F7620F731FD3
:100BC000841F951FA01D08952F923F924F925F9210
:100BD0006F927F928F929F92AF92BF92CF92DF924D
:100BE000EF92FF920F931F93CF93DF93CDB7DEB7B2
:100BF000CA1BDB0B0FB6F894DEBF0FBECDBF099446
:100C00002A88398848885F846E847D848C849B849C
:100C1000AA84B984C884DF80EE80FD800C811B81AA
:100C2000AA81B981CE0FD11D0FB6F894DEBF0FBED9
:0A0C3000CDBFED010895F894FFCF49
:100C3A000D0A004F4B0041544530004154004154C5
:100C4A002B43575341503D222573222C22257322D0
:100C5A002C25632C25630041542B43574D4F4445A3
:100C6A003D25630041542B4349504D55583D25635A
:100C7A000041542B4349505345525645523D256332
:100C8A002C25730041542B43495053454E443D256E
:100C9A00632C25730041542B434950434C4F534511
:100CAA003D2563003132333435363738004D494EED
:0C0CBA00494D4554454F5F762E31000037
:00000001FF
